:100000000C947C000C94A4000C94A4000C94A40008
:100010000C94A4000C94A4000C94A4000C94A400D0
:100020000C94A4000C94A4000C94A4000C946905F6
:100030000C94A4000C94A4000C94A4000C94A400B0
:100040000C948D110C94A4000C94E10F0C941310DB
:100050000C94A4000C94A4000C94A4000C94A40090
:100060000C94A4000C94A40037082B082D082F082A
:1000700030083208340836085908600867086E08E6
:1000800075088C087C088C088308FD080309090999
:100090000F0915091B0921090000000800020100D1
:1000A0000003040700000000000000000102040833
:1000B00010204080010204081020010204081020D2
:1000C00004040404040404040202020202020303FE
:1000D00003030303000000002300260029000000A2
:1000E0000000250028002B0000000000240027004D
:1000F0002A00F8004708431011241FBECFEFD8E0B4
:10010000DEBFCDBF12E0A0E0B1E0E8E4FEE202C055
:1001100005900D92A235B107D9F723E0A2E5B2E030
:1001200001C01D92AE37B207E1F710E0CCE7D0E096
:1001300004C02197FE010E944D13C937D107C9F7AA
:100140000E947C110C9422170C94000042E061E0A4
:100150008AE592E00C94650742E062E08AE592E06D
:100160000C946507EF920F9326E040E855E260E0BB
:1001700070E084ED92E00E947C0F6EE08091560268
:10018000909157020E941802609158027091590292
:1001900080E1E82E0FE020E430E040E250E0809182
:1001A0005402909155020E946F0242E161E18091F8
:1001B0005202909153020F91EF900C943501CF931E
:1001C000DF9380915602909157020E943002EC0119
:1001D000BC0180915402909155020E943A03BE01E5
:1001E0008091520290915302DF91CF910C94FC01C7
:1001F000CF93DF9342E06CE070E08AE592E00E94EA
:10020000FE0684E490E00E948B11EC014CEA50E081
:1002100066EA70E00E94DC0CD0935902C093580249
:1002200081E090E00E948B119093570280935602D8
:100230008FE090E00E948B112FE0FC0111922A9533
:10024000E9F7909355028093540280E190E00E9478
:100250008B1120E1FC0111922A95E9F7909353024A
:1002600080935202DF91CF9108958F929F92BF9217
:10027000CF92DF92EF92FF920F931F93CF93DF9372
:100280001F92CDB7DEB74C01B42E82E190E06983B6
:100290000E948B116C0114E6E12EF12C00E010E0BD
:1002A00020E040E06981C6010E94EC05F401D182A2
:1002B000C08282E190E00E948B116C0120E040E05E
:1002C0006B2D0E94EC05F401D382C2820F90DF9166
:1002D000CF911F910F91FF90EF90DF90CF90BF9043
:1002E0009F908F900895CF93DF93EC0160ED71E0C4
:1002F00084ED92E00E94B010488559856A857B851F
:100300002AE030E084ED92E0DF91CF910C94691106
:10031000CF93DF93EC017D836C830E94D7116C87B0
:100320007D878E879F8781E08F836FED71E084EDFD
:1003300092E0DF91CF910C94BD100F931F93CF9358
:10034000DF93EC011E821F820E94D7110C851D8550
:100350002E853F85DC01CB01801B910BA20BB30BDB
:1003600088879987AA87BB8760EF71E084ED92E068
:100370000E94BD10CE01DF91CF911F910F910C947F
:100380007301EF92FF920F931F93CF93DF93FC01C2
:100390002681222351F1EC017C01F4E0EF0EF11CE7
:1003A0008C010E151F0509F1F801808191810E94D1
:1003B0002106F801808191810E947F06882391F0B7
:1003C0008F81F80160817181811104C0CE010E948A
:1003D000880108C08C819D816817790719F0CE01CA
:1003E0000E949D010E5F1F4FDCCFDF91CF911F91C7
:1003F0000F91FF90EF900895FC016230710518F4A1
:1004000081E0868312C06230710511F416820DC03E
:100410006330710551F41682178210861186128698
:1004200013861486158616861786CF010C94C10193
:10043000CF93C62F26E040E855E260E070E084EDFF
:1004400092E00E947C0F8C2F0E94B10381E00E94F9
:10045000AE0380ED97E00E94F004CF910C943B0531
:100460000F931F93CF93DF93CDB7DEB7C155D1095B
:100470000FB6F894DEBF0FBECDBF80E562968FAF9A
:100480006297BE016F5A7F4FCE0101960E944505CB
:100490008823B9F0098110E060E072E084ED92E019
:1004A0000E94B0104AE050E0B80184ED92E00E9452
:1004B000621164E472E084ED92E00E94BD10C80114
:1004C00002C08FEF9FEFCF5ADF4F0FB6F894DEBF19
:1004D0000FBECDBFDF91CF911F910F9108956F9205
:1004E0007F929F92AF92BF92CF92DF92EF92FF9254
:1004F0000F931F93CF93DF931F92CDB7DEB73C01CD
:100500005B019E2CFC01518340833383228382E173
:1005100090E009830E948B116C01E12CF12C870182
:10052000E39420E040E06981C6010E94EC05F301FC
:10053000D286C18682E190E00E948B116C0120E09E
:1005400040E0692D0E94EC05F301D486C386B78292
:10055000A6820F90DF91CF911F910F91FF90EF90A6
:10056000DF90CF90BF90AF909F907F906F90089555
:10057000CF93DF93EC0118868E819F810E94810EBC
:10058000882331F08E819F81DF91CF910C941E0ED4
:10059000DF91CF910895CF93DF93EC0189859A8500
:1005A0000E94210689859A850E947F06882329F06A
:1005B00081E090E09D838C8318C08B859C850E9490
:1005C00021068B859C850E947F06882329F082E086
:1005D00090E09D838C8307C08C819D81029719F0E8
:1005E00081E090E002C08FEF9FEFDF91CF910895FF
:1005F000CF92DF92EF92FF92CF93DF93EC017B01DA
:100600000E94CB028130910519F42B853C8502C0F4
:1006100029853A853E872D87E89EB001E99E700DB9
:10062000F89E700D1124072E000C880B990B0E9468
:100630006F146B017C01AB01BC018E819F810E9414
:10064000350DB701A6018E819F810E94A70D81E023
:100650008887DF91CF91FF90EF90DF90CF90089542
:10066000FC01608171810C94F802FC01628173814C
:100670000C94F802CF93DF93EC016115710519F02A
:100680006330710539F48885811113C0CE010E9451
:1006900030030FC06130710539F48885811109C0BC
:1006A000CE010E94350305C06230710511F40E942D
:1006B000B80288858823A9F08D859E850E94210631
:1006C0008D859E850E947F06882329F0CE01DF91CB
:1006D000CF910C94B8028E819F81DF91CF910C94C1
:1006E000730ADF91CF9108958627082E8295807F27
:1006F0008025092E982F82958F7008268695982739
:100700008927880F880F880F802508951F93CF931E
:10071000DF93282FEC018FEF9FEF162F120F1C177E
:1007200021F069910E947403FACFDF91CF911F915C
:100730000895982F96959695987028E0290F92170E
:1007400049F0E92FF0E0EA5FFD4F3081831721F097
:100750009F5FF5CF80E00895892F08958093C502AB
:1007600008958093AF0108950F931F93CF939091B5
:10077000C302992329F08091C0028F5F8093C00249
:100780002091C2028091C102921759F0803510F079
:100790002DE101C02BE0820F8093C1029093C20231
:1007A00003C08C5E8093C1022091C102203A08F4FC
:1007B0007AC08091BB029091BC02969587959093E8
:1007C000BC028093BB023091C002353028F09860A3
:1007D0009093BC028093BB02205A2093C1021092D6
:1007E000C0028091BF02882309F44DC08091BA02F3
:1007F0008F5F8093BA028C3008F455C00091BB0221
:100800001091BC02802F8F730E949903C82FC801DA
:1008100026E0969587952A95E1F70E94990390E145
:10082000C99F90011124822B9091680291110EC0F2
:10083000809369029CEF980F9D3440F01092BF02A4
:10084000809167028F5F809367022DC0E0916802FC
:1008500091E09E0F90936802F0E0E659FD4F80838F
:100860009091680280916902981750F01092BF022F
:10087000809166028F5F8093660281E08093BE0262
:100880001092BA0210C08091BB029091BC028833D2
:100890009B4049F481E08093BF021092BA0210920B
:1008A00068021092BE02CF911F910F9108952F926E
:1008B0003F924F925F926F927F928F929F92AF92F0
:1008C000BF92CF92DF92EF92FF921F93CF93DF936D
:1008D000CDB7DEB762970FB6F894DEBF0FBECDBFBF
:1008E0006C015B011A018EE0E2ECF1E0DE01119691
:1008F00001900D928A95E1F7C114D10429F4D10138
:100900001D921C9280E054C0E12CF12C83E0CC0CB1
:10091000DD1CEE1CFF1C8A95D1F74E01B3E08B0E57
:10092000911C11E0412C94E2592E94EF692E712C08
:10093000CB01A0E0B0E08F87988BA98BBA8BD40154
:100940002D913D914D0140E050E0C301B2010E9464
:100950000C13CA01B901A70196010E940C132230A1
:1009600031054105510548F08F859889A989BA89D3
:10097000281739074A075B07B8F01F5F1730F9F6E9
:10098000223031054105510508F4B9CFC501A0E079
:10099000B0E082179307A407B50708F4B0CFD101E0
:1009A0002D933C93812F04C0163009F4A8CFEECFCD
:1009B00062960FB6F894DEBF0FBECDBFDF91CF9128
:1009C0001F91FF90EF90DF90CF90BF90AF909F90DE
:1009D0008F907F906F905F904F903F902F900895F1
:1009E000CF93DF9300D0CDB7DEB7AE014F5F5F4F3F
:1009F0006FEF7FEF0E945704882351F1109280001F
:100A000098E09093810090918100892B80938100E0
:100A100089819A81909389008093880080916F00EA
:100A2000826080936F0061E08091AE010E94771236
:100A300060E08091AF010E94771261E08091B00187
:100A40000E9477126091C5028091B0010E94B3129A
:100A50000F900F90DF91CF9108956091C502809122
:100A6000B0010E94B31260E08091AE010E94B31207
:100A70001092C80208958091BD02811105C081E0E5
:100A80008093BD021092BF020895AC012091BE0276
:100A90002223E9F0909168029350FB01808198171E
:100AA00008F49083FB01CA01408150E06BE672E0DC
:100AB0000E9419171092BE02609168028AE692E0C5
:100AC0000E94860321E0883B904F09F020E0822FAE
:100AD00008951F920F920FB60F9211242F933F93F8
:100AE0004F935F936F937F938F939F93AF93BF9336
:100AF000EF93FF938091BD02882321F08091C8027B
:100B0000882371F18091C8028823C9F08091C902BD
:100B100091E0980F9093C902811111C0E091CB022E
:100B20008091CC02E81730F10E942D058091C60219
:100B30009091C70201969093C7028093C60280915C
:100B4000C902883010F01092C9028091BD0288233A
:100B500091F18091C80281112EC00E94B4032BC074
:100B60008091AF010E94E3129091C4028927809383
:100B7000C302C8CFF0E0EA5FFE4F90818091CA02C5
:100B800021E0280F2093CA0261E070E001C0660FE7
:100B90008A95EAF769238091AE010E94B312809191
:100BA000CA02863060F21092CA028091CB028F5F37
:100BB0008093CB02C4CFFF91EF91BF91AF919F91F2
:100BC0008F917F916F915F914F913F912F910F90F6
:100BD0000FBE0F901F901895EF92FF920F931F93E7
:100BE000CF93DF93EC01862F688349832A83EE86B7
:100BF000FF86088B198B442311F062E001C060E08E
:100C00000E94771288810E94E3128B839A81992334
:100C100021F091E0811190E09B830E94D7116E83B7
:100C20007F83888799872B812C831D826A877B87A6
:100C30008C879D87DF91CF911F910F91FF90EF904F
:100C40000895CF92DF92EF92FF920F931F93CF936D
:100C5000DF93EC010E94D7116093CE027093CF0214
:100C60008093D0029093D10288810E94E3128093F6
:100C7000CD029A81992329F091E0811190E090931F
:100C8000CD024091CE025091CF026091D00270917E
:100C9000D1028A859B85AC85BD856A017B01C81A16
:100CA000D90AEA0AFB0A0E851F85288939899B81A2
:100CB000C016D106E206F30638F44E835F836887D8
:100CC00079871D82892F12C09C838091CD028B83EE
:100CD0004E835F8368877987891739F04A875B87F6
:100CE0006C877D8791E09D8301C01D82DF91CF914C
:100CF0001F910F91FF90EF90DF90CF90089521E02A
:100D0000FC018381811101C020E0822F089584B508
:100D1000836884BD17BC61E086E00C94771284B5CB
:100D2000836284BD18BC61E085E00C947712CF9398
:100D3000DF9360E08CE00E94B31260E088E00E94E4
:100D4000B312C7E0D0E060E084E00E94B31280916B
:100D5000D30290E00C2E02C0959587950A94E2F795
:100D600080FF02C061E001C060E088E00E94B31231
:100D700061E084E00E94B312219728F761E08CE0E3
:100D8000DF91CF910C94B312CF93DF93EC0161E02C
:100D90008CE00E94771261E087E00E94771261E0A8
:100DA00088E00E94771261E084E00E94771210923E
:100DB000D302CE010E94970660E087E0DF91CF91D9
:100DC0000C94B312E0EBF0E090819368908387700D
:100DD0008093B1001092B30061E08BE00C94771225
:100DE000E0EBF0E090819362908387708093B10094
:100DF0001092B40061E083E00C947712EF92FF92BE
:100E00000F931F93CF93DF931F92CDB7DEB77C0173
:100E10008B0182ED92E049830E94C406F7011183A1
:100E20000083498142831386413029F58091D302A2
:100E3000817E8093D30282ED92E00E94970661E06A
:100E40008BE00E94771261E083E00E94771261E0FC
:100E50008BE00E94B31261E083E00E94B31281E054
:100E60000E94E20681E00E94F0068FEF8093B300BB
:100E70008093B40022C0423001F58091D3028E717C
:100E80008093D30282ED92E00E94970661E085E0B4
:100E90000E94771261E086E00E94771261E085E0AF
:100EA0000E94B31261E086E00E94B3120E9487069E
:100EB0000E948F068FEF87BD88BD0F90DF91CF9185
:100EC0001F910F91FF90EF9008950F931F93CF9371
:100ED000DF93DC0112967C911297713041F07230F1
:100EE00009F0CFC0D0E430E8C1E020E204C0D0E196
:100EF00038E0C2E024E01B969C911B97413019F426
:100F000093FF05C00FC0423059F493FF0BC061300E
:100F100011F4905F01C090511B969C931B9747C0A2
:100F2000433031F4613011F4985FF6CF9850F4CF2C
:100F30004430E9F5613011F49F5F01C091501B9678
:100F40009C931B971B965C911B975F731B965C93FE
:100F50001B97852F90E0503148F4E1ECF1E0E81B5D
:100F6000F90B5081FC01EF54FE4F1FC060EF650F7D
:100F7000603138F4FC01EF55FE4F5081E1EDF1E0B6
:100F800012C05052503148F4E1EEF1E0E81BF90B89
:100F90005081FC01EF56FE4F08C0FC01EF57FE4F99
:100FA0005081E1EFF1E0E81BF90B808102C05FEFB7
:100FB0008FEF1B969C911B979F731B969C931B977F
:100FC000713029F45093B3008093B40004C07230A0
:100FD00011F457BD88BD1C2F122B0D2F032B802F12
:100FE000812B80959091D30289238093D3021B9605
:100FF0009C911B97443009F5903118F4182B1093ED
:10100000D30280EF890F803138F48C2F832B3091FD
:10101000D302832B8093D30280EE890F803128F492
:101020008091D302802B8093D3029053903110F59E
:10103000822F8D2B2091D3021AC0E92FE695E695D9
:10104000E6954E2F50E048305105A0F4FA01EC5CD3
:10105000FF4F0C944D13812B0BC08C2B09C03C2BE4
:10106000832B06C0802B04C08D2B02C02D2B822B1E
:101070008093D302ED0182ED92E00E9497068B856A
:1010800001C080E0DF91CF911F910F9108951092E0
:10109000D20208950F931F93DC011396EC910E2F4B
:1010A00010E009301105C0F5F801E45CFF4F0C9425
:1010B0004D13DC01ED91FC910084F185E02D29C0F8
:1010C000DC01ED91FC910284F385E02D22C0DC016E
:1010D000ED91FC910484F585E02D1BC0DC01ED91C0
:1010E000FC910684F785E02D14C0DC01ED91FC91A4
:1010F0000088F189E02D0DC0DC01ED91FC910288A2
:10110000F389E02D06C0DC01ED91FC910488F5899E
:10111000E02D1F910F9109941F910F910895CF9386
:10112000DF93EC01CB01BA0126E030E040E050E073
:101130000E942E13623071058105910559F18CF4DE
:101140006115710581059105F1F061307105810529
:101150009105C1F5E881F9810480F581E02D65E014
:101160002DC0643071058105910511F1D4F0653011
:1011700071058105910531F5E881F9810480F581DA
:10118000E02D66E01BC0E881F9810480F581E02D47
:1011900064E014C0E881F9810480F581E02D61E00C
:1011A0000DC0E881F9810480F581E02D63E006C07F
:1011B000E881F9810480F581E02D62E0CE01DF91C4
:1011C000CF910994DF91CF910895CF93DF9347702A
:1011D000552766277727FA013197EC01A881B98155
:1011E000E730F10520F4EB5BFF4F0C944D131496A0
:1011F000ED91FC91159761E029C01496ED91FC9159
:10120000159765E023C01496ED91FC91159764E065
:101210001DC01496ED91FC91159766E017C01496C9
:10122000ED91FC91159762E011C01496ED91FC913F
:1012300015976AE00BC01496ED91FC91159768E044
:1012400005C01496ED91FC91159769E0DF91CF915F
:101250000994CF92DF92EF92FF920F931F93CF9357
:10126000DF93FC012381243041F0283031F023301A
:1012700031F0263021F012E003C014E001C013E089
:10128000EC012896E12CF12CC62ED12C01E0C601F0
:101290000E2C02C0959587950A94E2F7688180FD2F
:1012A0006027FE01349780810E94B312FFEFEF1A8E
:1012B000FF0A2196E11658F3DF91CF911F910F910C
:1012C000FF90EF90DF90CF900895CF93DF93EC01E4
:1012D000E881F9810480F581E02D8A81811102C0C5
:1012E00060E001C062E0CE010995E881F9810480E7
:1012F000F581E02D8A81811102C061E001C063E0C7
:10130000CE0109958CA59DA50E940812E881F9815E
:101310000480F581E02D8A81811102C060E001C066
:1013200062E0CE01DF91CF910994CF93DF93EC017E
:1013300020E030E0A9016C897D898E899F890E9417
:101340001F1518161CF4E8A9F9A902C0EAA9FBA9FF
:10135000DF91CF9109944370552766277727DC01E9
:10136000ED91FC910480F581E02D4230510561053D
:10137000710571F0433051056105710559F0413037
:1013800051056105710511F062E005C063E003C01D
:1013900061E001C060E00994CF93DF93EC01CB01E1
:1013A000BA0123E030E040E050E00E942E136130AB
:1013B00071058105910581F0623071058105910506
:1013C00091F0672B682B692BC1F4E881F9810480C7
:1013D000F581E02D64E00DC0E881F9810480F5819C
:1013E000E02D61E006C0E881F9810480F581E02DFF
:1013F00062E0CE01DF91CF910994DF91CF91089502
:101400004370552766277727DC01ED91FC91048016
:10141000F581E02D423051056105710571F04330D1
:1014200051056105710559F041305105610571059E
:1014300011F065E005C066E003C06AE001C069E044
:101440000994CF93DF93FC0123812223A9F0EC01BF
:101450000190F081E02D0480F581E02D60E0099598
:101460008FA58F3F49F061E00E9477126EA58FA58E
:10147000DF91CF910C94B312DF91CF910895CF9368
:10148000DF93FC012381222359F1EC0161E0848187
:101490000E94771261E08D810E9477128B818430E7
:1014A00011F0883039F461E08E810E94771261E09A
:1014B0008F8106C0833011F0863021F461E08E8187
:1014C0000E9477128FA58F3F59F061E00E9477123A
:1014D0006EA581E068278FA5DF91CF910C94B312A0
:1014E000DF91CF910895CF92DF92EF92FF92CF9349
:1014F000DF93FC0144A155A166A177A1452B462BA2
:10150000472B11F480E03AC0EC010E94E3116B011B
:101510007C0188A599A5AAA5BBA5B701A601481B72
:10152000590B6A0B7B0B8CA19DA1AEA1BFA14817E3
:1015300059076A077B0730F32A818C859D85AE8524
:10154000BF85222321F00196A11DB11D03C0019783
:10155000A109B1098C879D87AE87BF87E881F98192
:101560004C855D856E857F850680F781E02DCE01F7
:101570000995C8A6D9A6EAA6FBA681E0DF91CF917E
:10158000FF90EF90DF90CF9008952F923F924F926F
:101590005F926F927F928F929F92AF92BF92CF9203
:1015A000DF92EF92FF920F931F93CF93DF9300D0C0
:1015B00000D0CDB7DEB71C01FC01C088D188E2881D
:1015C000F38884859585A685B785C81AD90AEA0A5D
:1015D000FB0A64897589868997899B01AC010E9401
:1015E00024154B015C01F101648D758D868D978DFD
:1015F0009B01AC010E9454139B01AC01C501B401D5
:101600000E94C5130E943714C114D104E104F104EF
:10161000A1F462307105810591050CF07CC0F101E7
:1016200014A215A216A217A2148A158A168A178A5E
:1016300014AA15AA16AA17AAFFC0F10104A915A990
:1016400026A937A91C141D041E041F0404F5101636
:101650001106120613064CF46C157D058E059F05C8
:101660005CF52281211157C027C001151105210504
:10167000310509F450C06C157D058E059F050CF0F1
:101680004AC0F1018281882309F445C039C010168F
:10169000110612061306FCF40027112798010C19F5
:1016A0001D092E093F09601771078207930724F46B
:1016B000F1012281222379F19B01AC01882799272E
:1016C000DC01821B930BA40BB50BF10184AB95AB32
:1016D000A6ABB7AB20C00115110521053105D9F026
:1016E0008824992454018C189D08AE08BF086815F9
:1016F00079058A059B057CF4F101828181110BC07B
:1017000030952095109501951F4F2F4F3F4F04ABFB
:1017100015AB26AB37ABF10184A895A8A6A8B7A84E
:1017200081149104A104B10491F480AD91ADA2ADF6
:10173000B3AD84AF95AFA6AFB7AF81E01C141D0465
:101740001E041F040CF080E0F101828341C0F1010E
:10175000C4ACD5ACE6ACF7ACA7019601C701B601A5
:101760000E9454132B013C01C501B4010E946F1467
:1017700020E030E040E850E40E94241520E030E012
:1017800040E85FE30E9454139B01AC01C301B20126
:101790000E94C5139B01AC01C701B6010E945313FF
:1017A0003B016C01F101E05CFF4FE080F1800281C0
:1017B00013819701A8010E941F15181614F47301D4
:1017C0008601C701D801F10184AF95AFA6AFB7AFCD
:1017D000FFEF8F1A9F0AAF0ABF0AF10184AA95AAE8
:1017E000A6AAB7AA24AD35AD46AD57ADCA01B90119
:1017F00029833A834B835C830E943E14F10164A3E6
:1018000075A386A397A329813A814B815C8160E00F
:1018100074E284E799E40E94C513F101648B758B2F
:10182000868B978B2281211107C0DC01CB01B05838
:10183000848B958BA68BB78B0F900F900F900F908A
:10184000DF91CF911F910F91FF90EF90DF90CF909C
:10185000BF90AF909F908F907F906F905F904F90D0
:101860003F902F9008950F931F93FC0100891189D9
:1018700022893389041715072607370741F0408B63
:10188000518B628B738B1F910F910C94C50A1F9122
:101890000F9108950F931F93FC01048515852685EC
:1018A0003785400F511F621F731F1F910F910C94BA
:1018B000330C4F925F926F927F928F929F92AF9272
:1018C000BF92CF92DF92EF92FF92CF93DF93EC0122
:1018D0006A017B0120E030E0A901C701B6010E9446
:1018E000C01387FF04C0F7FAF094F7F8F0948C8CDB
:1018F0009D8CAE8CBF8CA7019601C501B4010E94DE
:10190000C013882309F449C06CA97DA98EA99FA999
:101910000E946F142B013C01A7019601C501B4017F
:101920000E94C5139B01AC01C301B2010E942415A2
:101930000E9437146CAB7DAB8EAB9FABA7019601B9
:1019400060E070E080E090E40E94C5130E9497156B
:1019500026E53EE04DE25FE30E94241520E034E2FC
:1019600044E759E40E94241568AF79AF8AAF9BAF72
:10197000CC8EDD8EEE8EFF8ECE01DF91CF91FF906B
:10198000EF90DF90CF90BF90AF909F908F907F901F
:101990006F905F904F900C94C50ADF91CF91FF90AC
:1019A000EF90DF90CF90BF90AF909F908F907F90FF
:1019B0006F905F904F900895CF93DF93FC018AE181
:1019C00092E091838083138214861586168617868B
:1019D000108A118A128A138A148A158A168A178A1B
:1019E00080E090E0A0E8BFE3808F918FA28FB38F5B
:1019F000148E158E168E178E80A391A3A2A3B3A367
:101A000014A215A216A217A221E030E035A724A740
:101A10002FEF27A710A611A612A613A614821582CF
:101A20001682178271AB60AB53AB42AB14AA15AAF6
:101A300016AA17AA10AE11AE12AE13AE14AE15AEA2
:101A400016AE17AEEF01C05CDF4F88839983AA837F
:101A5000BB8312821086118612861386AC01BD01EB
:101A6000CF01DF91CF910C94590CCF92DF92EF927E
:101A7000FF920F931F93CF93DF93EC016A017B01D9
:101A800020E030E0A901C701B6010E94C01387FF22
:101A900004C0F7FAF094F7F8F094A7019601688D66
:101AA000798D8A8D9B8D0E94C013882309F446C0CE
:101AB000C88ED98EEA8EFB8E8E01005C1F4FA70167
:101AC000960160E074E284E799E40E94C513F8018E
:101AD00060837183828393838CA99DA9AEA9BFA9DA
:101AE000181619061A061B064CF56C897D898E8915
:101AF0009F899B01AC010E9424156B017C016C8DB8
:101B00007D8D8E8D9F8D9B01AC010E9454139B0196
:101B1000AC01C701B6010E94C5130E9437146CAB1B
:101B20007DAB8EAB9FABCE01DF91CF911F910F911B
:101B3000FF90EF90DF90CF900C94C50ADF91CF918A
:101B40001F910F91FF90EF90DF90CF9008954F92EB
:101B50005F926F927F92AF92BF92CF92DF92EF929D
:101B6000FF920F931F93CF93DF93EC015A018B01E8
:101B70002C893D894E895F89B501C8010E94C01337
:101B8000882309F44CC0C88CD98CEA8CFB8C2601C4
:101B9000370177FA709477F87094A3019201B50138
:101BA000C8010E94C01387FD0BC0A7019601B501B3
:101BB000C8010E941F1518162CF06501780102C09B
:101BC0007301620120E030E0A901C701B6010E9463
:101BD000C013811105C01CA21DA21EA21FA21BC002
:101BE000A701960160E074E284E799E40E94C513BE
:101BF0009F770E943E146CA37DA38EA39FA311E048
:101C000020E030E0A901C701B6010E941F15181697
:101C10000CF010E01A83CC8ADD8AEE8AFF8ADF910D
:101C2000CF911F910F91FF90EF90DF90CF90BF90D9
:101C3000AF907F906F905F904F9008958F929F929A
:101C4000AF92BF92CF92DF92EF92FF92CF93DF934A
:101C5000EC018C889D88AE88BF8820E030E0A90127
:101C6000C501B4010E94C013882309F43FC0A50137
:101C70009401C501B4010E9424156B017C016C8D97
:101C80007D8D8E8D9F8D9B01AC010E9454139B0115
:101C9000AC01C701B6010E94C5130E9437146B0145
:101CA0007C012FEFC21AD20AE20AF20A20E030E0E9
:101CB000A901C501B4010E941F1518161CF4B70133
:101CC000A60107C044275527BA014C195D096E09C2
:101CD0007F09CE01DF91CF91FF90EF90DF90CF9001
:101CE000BF90AF909F908F900C944A0CDF91CF9152
:101CF000FF90EF90DF90CF90BF90AF909F908F902C
:101D000008950F931F93CF93DF93EC0120E030E011
:101D1000A9016C897D898E899F890E94C0138111D8
:101D200010C081E0088919892A893B894C855D8525
:101D30006E857F85041715072607370719F480E09D
:101D400001C081E0DF91CF911F910F910895FC01B7
:101D5000918D228D892F90E0805C9F4F821B91098D
:101D60008F7399270895FC01918D828D981731F01A
:101D7000828DE80FF11D858D90E008958FEF9FEF24
:101D80000895FC01918D828D981761F0828DDF019D
:101D9000A80FB11D5D968C91928D9F5F9F73928F5E
:101DA00090E008958FEF9FEF0895FC01538D448DCF
:101DB000252F30E0842F90E0821B930B541710F0F6
:101DC000CF9608950197089589E390E1892B49F012
:101DD00080E090E0892B29F00E94391081110C9449
:101DE00000000895FC01848DDF01A80FB11DA35AE6
:101DF000BF4F2C91848D90E001968F739927848F2B
:101E0000A689B7892C93A089B1898C9180648C9321
:101E1000938D848D981306C00288F389E02D80810C
:101E20008F7D80830895CF93DF93EC01888D882385
:101E3000C9F0EA89FB89808185FD05C0A889B98937
:101E40008C9186FD0FC00FB607FCF5CF808185FF12
:101E5000F2CFA889B9898C9185FFEDCFCE010E9480
:101E6000F20EE7CFDF91CF910895EF92FF920F939B
:101E70001F93CF93DF93EC0181E0888F9B8D8C8D36
:101E8000981305C0E889F989808185FD24C0F62E64
:101E90000B8D10E00F5F1F4F0F731127E02E8C8DFD
:101EA000E8120CC00FB607FCFACFE889F9898081E7
:101EB00085FFF5CFCE010E94F20EF1CF8B8DFE0192
:101EC000E80FF11DE35AFF4FF0820B8FEA89FB897F
:101ED0008081806207C0EE89FF896083E889F98983
:101EE00080818064808381E090E0DF91CF911F91B9
:101EF0000F91FF90EF900895CF92DF92EF92FF92B3
:101F00001F93CF93DF93EC016A017B01122FE889C5
:101F1000F98982E080834115514E61057105B1F068
:101F200060E079E08DE390E0A70196010E940C1338
:101F3000DA01C9010197A109B109B695A79597954D
:101F40008795AC01411580E15807A8F0E889F98927
:101F5000108260E874E88EE190E0A70196010E948B
:101F60000C13BA01A9014150510961097109769513
:101F7000679557954795EC85FD855083EE85FF85E0
:101F80004083188EEC89FD891083EA89FB89808162
:101F900080618083EA89FB89808188608083EA8907
:101FA000FB89808180688083EA89FB8980818F7DBD
:101FB0008083DF91CF911F91FF90EF90DF90CF90C2
:101FC00008951F920F920FB60F9211242F938F93A3
:101FD0009F93EF93FF93E091E402F091E5028081FB
:101FE000E091EA02F091EB0282FD12C090818091B3
:101FF000ED028F5F8F732091EE02821751F0E09116
:10200000ED02F0E0EC52FD4F958F8093ED0201C0A0
:102010008081FF91EF919F918F912F910F900FBE33
:102020000F901F9018951F920F920FB60F921124C8
:102030002F933F934F935F936F937F938F939F93D0
:10204000AF93BF93EF93FF9384ED92E00E94F20E63
:10205000FF91EF91BF91AF919F918F917F916F9180
:102060005F914F913F912F910F900FBE0F901F9056
:10207000189584ED92E00E94A70E21E0892B09F4C7
:1020800020E0822F0895E4EDF2E01382128288EEC0
:1020900093E0A0E0B0E084839583A683B78384E3D4
:1020A00092E09183808385EC90E09587848784EC2F
:1020B00090E09787868780EC90E0918B808B81EC15
:1020C00090E0938B828B82EC90E0958B848B86ECF6
:1020D00090E0978B868B118E128E138E148E08953E
:1020E000CF92DF92EF92FF920F931F93CF93DF93E4
:1020F0006C017A018B01C0E0D0E0CE15DF0589F0DC
:10210000D8016D918D01D601ED91FC910190F08186
:10211000E02DC6010995892B11F47E0102C021969C
:10212000ECCFC701DF91CF911F910F91FF90EF90FE
:10213000DF90CF9008956115710579F0FB01019052
:102140000020E9F73197AF01461B570BDC01ED91F9
:10215000FC910280F381E02D099480E090E00895E5
:102160000C949B10DC01ED91FC910190F081E02D2D
:10217000099462E472E00C949B100F931F93CF9329
:10218000DF93EC010E949B108C01CE010E94B910DC
:10219000800F911FDF91CF911F910F9108954F9262
:1021A0005F926F927F92EF92FF920F931F93CF9364
:1021B000DF93CDB7DEB7A1970FB6F894DEBF0FBEA1
:1021C000CDBF7C01FA01CB0119A2223008F42AE02C
:1021D0008E010F5D1F4F422E512C612C712CBF01BF
:1021E000A30192010E940C13F901CA0101501109C7
:1021F0006A3014F4605D01C0695CD8016C93232BD4
:10220000242B252B61F7B801C7010E949B10A196D2
:102210000FB6F894DEBF0FBECDBFDF91CF911F91F7
:102220000F91FF90EF907F906F905F904F90089587
:10223000CF92DF92EF92FF920F931F93CF93DF9392
:10224000EC016A017B012115310579F4E881F981FE
:102250000190F081E02D642FDF91CF911F910F91BC
:10226000FF90EF90DF90CF9009942A303105E9F488
:1022700077FF1AC06DE20E94B2108C0144275527E7
:10228000BA014C195D096E097F092AE0CE010E944E
:10229000CF10800F911FDF91CF911F910F91FF9071
:1022A000EF90DF90CF9008952AE0B701A601CE010C
:1022B000DF91CF911F910F91FF90EF90DF90CF9022
:1022C0000C94CF109A01AB01770F660B770B0C942F
:1022D00018110F931F93CF93DF93EC010E941811F5
:1022E0008C01CE010E94B910800F911FDF91CF9118
:1022F0001F910F91089508950E9413120E947B115F
:102300000E94B200C4EEDEE00E94DF002097E1F3FD
:102310000E94E40EF9CF0C94EC151F920F920FB6A9
:102320000F9211242F933F938F939F93AF93BF935B
:102330008091720390917303A0917403B09175031F
:102340003091710323E0230F2D3720F40196A11D56
:10235000B11D05C026E8230F0296A11DB11D2093D3
:1023600071038093720390937303A0937403B093EB
:1023700075038091760390917703A0917803B091D3
:1023800079030196A11DB11D809376039093770385
:10239000A0937803B0937903BF91AF919F918F91F0
:1023A0003F912F910F900FBE0F901F9018952FB750
:1023B000F89460917203709173038091740390910B
:1023C00075032FBF08953FB7F894809176039091DD
:1023D0007703A0917803B091790326B5A89B05C037
:1023E0002F3F19F00196A11DB11D3FBFBA2FA92F94
:1023F000982F8827820F911DA11DB11DBC01CD0111
:1024000042E0660F771F881F991F4A95D1F70895FC
:102410008230910538F0880F991F880F991F059712
:102420000197F1F70895789484B5826084BD84B5EE
:10243000816084BD85B5826085BD85B5816085BDBF
:10244000EEE6F0E0808181608083E1E8F0E01082D8
:10245000808182608083808181608083E0E8F0E019
:10246000808181608083E1EBF0E080818460808303
:10247000E0EBF0E0808181608083EAE7F0E080813A
:10248000846080838081826080838081816080839A
:102490008081806880831092C1000895833081F02C
:1024A00028F4813099F08230A1F008958730A9F0A6
:1024B0008830B9F08430D1F4809180008F7D03C0E2
:1024C000809180008F7780938000089584B58F7706
:1024D00002C084B58F7D84BD08958091B0008F7750
:1024E00003C08091B0008F7D8093B0000895CF939A
:1024F000DF9390E0FC01E455FF4F2491FC01E05490
:10250000FF4F8491882361F190E0880F991FFC01AF
:10251000E851FF4FC591D491FC01E252FF4FA591C4
:10252000B491611109C09FB7F894888120958223E6
:102530008883EC912E230BC0623061F49FB7F8942E
:102540003881822F809583238883EC912E2B2C93C6
:102550009FBF06C08FB7F894E8812E2B28838FBFCA
:10256000DF91CF9108951F93CF93DF93282F30E011
:10257000F901E856FF4F8491F901E455FF4FD491DA
:10258000F901E054FF4FC491CC23C9F0162F8111FB
:102590000E944E12EC2FF0E0EE0FFF1FE252FF4FB1
:1025A000A591B4918FB7F894111105C09C91ED2FAE
:1025B000E095E92302C0EC91ED2BEC938FBFDF9106
:1025C000CF911F910895CF93DF93282F30E0F90129
:1025D000E856FF4F8491F901E455FF4FD491F9017A
:1025E000E054FF4FC491CC2391F081110E944E1210
:1025F000EC2FF0E0EE0FFF1FEC52FF4FA591B491CE
:10260000EC91ED2381E090E021F480E002C080E0D5
:1026100090E0DF91CF910895A1E21A2EAA1BBB1B77
:10262000FD010DC0AA1FBB1FEE1FFF1FA217B3079E
:10263000E407F50720F0A21BB30BE40BF50B661FB4
:10264000771F881F991F1A9469F760957095809578
:1026500090959B01AC01BD01CF010895052E97FB1C
:102660001EF400940E94451357FD07D00E940C13DE
:1026700007FC03D04EF40C944513509540953095CB
:1026800021953F4F4F4F5F4F0895909580957095DE
:1026900061957F4F8F4F9F4F0895EE0FFF1F05905D
:1026A000F491E02D09945058BB27AA270E946B1380
:1026B0000C94E5140E94D71438F00E94DE1420F028
:1026C00039F49F3F19F426F40C94D4140EF4E095D9
:1026D000E7FB0C94CE14E92F0E94F61458F3BA17B6
:1026E000620773078407950720F079F4A6F50C9428
:1026F00018150EF4E0950B2EBA2FA02D0B01B90181
:1027000090010C01CA01A0011124FF27591B99F067
:10271000593F50F4503E68F11A16F040A22F232F73
:10272000342F4427585FF3CF469537952795A795C3
:10273000F0405395C9F77EF41F16BA0B620B730B6A
:10274000840BBAF09150A1F0FF0FBB1F661F771FDB
:10275000881FC2F70EC0BA0F621F731F841F48F490
:10276000879577956795B795F7959E3F08F0B0CF19
:102770009395880F08F09927EE0F97958795089500
:102780000E94AA1408F481E008950E94D9130C94C1
:10279000E5140E94DE1458F00E94D71440F029F48A
:1027A0005F3F29F00C94CE1451110C9419150C9420
:1027B000D4140E94F61468F39923B1F3552391F3CE
:1027C000951B550BBB27AA2762177307840738F0A0
:1027D0009F5F5F4F220F331F441FAA1FA9F335D0FD
:1027E0000E2E3AF0E0E832D091505040E695001CB1
:1027F000CAF72BD0FE2F29D0660F771F881FBB1F6B
:10280000261737074807AB07B0E809F0BB0B802D48
:10281000BF01FF2793585F4F3AF09E3F510578F074
:102820000C94CE140C9419155F3FE4F3983ED4F346
:10283000869577956795B795F7959F5FC9F7880F48
:10284000911D9695879597F90895E1E0660F771F9A
:10285000881FBB1F621773078407BA0720F0621B2B
:10286000730B840BBA0BEE1F88F7E09508950E9456
:102870003E146894B1110C94191508950E94FE1429
:1028800088F09F5798F0B92F9927B751B0F0E1F031
:10289000660F771F881F991F1AF0BA95C9F714C0E1
:1028A000B13091F00E941815B1E008950C941815FC
:1028B000672F782F8827B85F39F0B93FCCF386951A
:1028C00077956795B395D9F73EF490958095709577
:1028D00061957F4F8F4F9F4F0895E89409C097FBF4
:1028E0003EF490958095709561957F4F8F4F9F4FE7
:1028F0009923A9F0F92F96E9BB279395F69587952B
:1029000077956795B795F111F8CFFAF4BB0F11F4ED
:1029100060FF1BC06F5F7F4F8F4F9F4F16C0882394
:1029200011F096E911C0772321F09EE8872F762FCA
:1029300005C0662371F096E8862F70E060E02AF00B
:102940009A95660F771F881FDAF7880F96958795F7
:1029500097F90895990F0008550FAA0BE0E8FEEFCC
:1029600016161706E807F907C0F012161306E40753
:10297000F50798F0621B730B840B950B39F40A264C
:1029800061F0232B242B252B21F408950A2609F42A
:10299000A140A6958FEF811D811D089597F99F672E
:1029A00080E870E060E008959FEF80EC08950024D7
:1029B0000A941616170618060906089500240A94A4
:1029C00012161306140605060895092E0394000C2A
:1029D00011F4882352F0BB0F40F4BF2B11F460FFB9
:1029E00004C06F5F7F4F8F4F9F4F089557FD9058E2
:1029F000440F551F59F05F3F71F04795880F97FBC3
:102A0000991F61F09F3F79F087950895121613067C
:102A10001406551FF2CF4695F1DF08C016161706AB
:102A20001806991FF1CF86957105610508940895E0
:102A3000E894BB2766277727CB0197F908950E9472
:102A4000AA1408F48FEF08950E9437150C94E5142A
:102A50000E94D71438F00E94DE1420F0952311F064
:102A60000C94CE140C94D41411240C9419150E94B7
:102A7000F61470F3959FC1F3950F50E0551F629FB8
:102A8000F001729FBB27F00DB11D639FAA27F00DC7
:102A9000B11DAA1F649F6627B00DA11D661F829FEE
:102AA0002227B00DA11D621F739FB00DA11D621FD3
:102AB000839FA00D611D221F749F3327A00D611DF0
:102AC000231F849F600D211D822F762F6A2F1124D2
:102AD0009F5750409AF0F1F088234AF0EE0FFF1F05
:102AE000BB1F661F771F881F91505040A9F79E3F5C
:102AF000510580F00C94CE140C9419155F3FE4F34B
:102B0000983ED4F3869577956795B795F795E795B1
:102B10009F5FC1F7FE2B880F911D9695879597F9BA
:102B2000089519F416F40C94D4140C94D7150E943B
:102B3000FE14B8F39923C9F3B6F39F57550B87FFDB
:102B40000E94E5150024A0E640EA900180585695C1
:102B5000979528F4805C660F771F881F20F0261752
:102B60003707480730F4621B730B840B2029312987
:102B70004A2BA69517940794202531254A2758F704
:102B8000660F771F881F20F026173707480730F495
:102B9000620B730B840B200D311D411DA09581F735
:102BA000B901842F9158880F9695879508959F3F76
:102BB00031F0915020F4879577956795B795880FF8
:102BC000911D9695879597F9089591505040660FFD
:102BD000771F881FD2F70895CF93DF938230910536
:102BE00010F482E090E0E0917C03F0917D0320E01E
:102BF00030E0C0E0D0E0309711F1408151814817BA
:102C00005907C0F04817590761F4828193812097D2
:102C100019F09B838A832BC090937D0380937C0360
:102C200026C02115310519F04217530718F49A01EF
:102C3000BE01DF01EF010280F381E02DDCCF211521
:102C4000310509F1281B390B2430310590F4129617
:102C50008D919C9113976115710521F0FB01938370
:102C6000828304C090937D0380937C03FD013296A0
:102C700044C0FD01E20FF31F81939193225031096B
:102C80002D933C933AC020917A0330917B03232B00
:102C900041F4209102013091030130937B03209392
:102CA0007A0320910001309101012115310541F491
:102CB0002DB73EB74091040150910501241B350BFF
:102CC000E0917A03F0917B03E217F307A0F42E1B47
:102CD0003F0B2817390778F0AC014E5F5F4F241780
:102CE000350748F04E0F5F1F50937B0340937A03E4
:102CF0008193919302C0E0E0F0E0CF01DF91CF91AA
:102D000008950F931F93CF93DF93009709F48CC01E
:102D1000FC0132971382128200917C0310917D0393
:102D20000115110581F420813181820F931F2091BB
:102D30007A0330917B032817390779F5F0937B03E9
:102D4000E0937A0371C0D80140E050E0AE17BF07AE
:102D500050F412962D913C911397AD012115310538
:102D600009F1D901F3CF9D01DA0133832283608118
:102D70007181860F971F8217930769F4EC012881F0
:102D80003981260F371F2E5F3F4F318320838A8181
:102D90009B8193838283452B29F4F0937D03E093F9
:102DA0007C0342C01396FC93EE931297ED01499178
:102DB00059919E01240F351FE217F30771F48081AA
:102DC0009181840F951F029611969C938E93828118
:102DD000938113969C938E931297E0E0F0E0D801D4
:102DE00012968D919C911397009719F0F8018C0120
:102DF000F6CF8D919C9198012E5F3F4F820F931FCC
:102E000020917A0330917B032817390769F43097B2
:102E100029F410927D0310927C0302C01382128267
:102E200010937B0300937A03DF91CF911F910F9151
:102E30000895FB01DC0102C001900D924150504009
:082E4000D8F70895F894FFCFC4
:102E480000007E0380002A2A2A2A2A2A382C000019
:102E5800000000000000000000000000000000006A
:102E6800000000000000000000000000000000005A
:102E7800000000000000000000000000000000004A
:102E8800000000000000000000000000000000003A
:102E9800000000000000000000000000000000002A
:102EA800000000000000000000000000000000001A
:102EB800000000000000000000000000000000000A
:102EC80000000000000000000000000000000000FA
:102ED80000000000000000000000000000000000EA
:102EE80000000000000000000000000000000C0BC3
:102EF8000A0019324A62788DA2B4C5D4E1ECF4FA1A
:102F0800FDFF000001000800400000010004050D5D
:102F180054696D6520656C61707365643A20004D75
:102F28006561737572696E673A3A73746172740099
:102F38004D6561737572696E673A3A73746F7000A4
:102F4800476F743A20000D0E131516191A1C232505
:102F580026292A2C323400000000210A3F0A2909B8
:102F68004A0895096509AB09CC09000A8F08E508E4
:102F780000000000350F7010D50E130FA70EC10EFC
:102F8800B30E0D0A006E616E00696E66006F76669C
:022F9800000037
:00000001FF
