:100000000C9463000C948B000C948B000C948B006C
:100010000C948B000C948B000C948B000C948B0034
:100020000C948B000C9490090C948B000C94120788
:100030000C948B000C948B000C948B000C948B0014
:100040000C94640D0C948B000C94960B0C94C80BC0
:100050000C948B000C948B000C948B000C948B00F4
:100060000C948B000C948B0000000008000201002F
:100070000003040700000000000000000102040863
:100080001020408001020408102001020408102002
:10009000040404040404040402020202020203032E
:1000A00003030303000000002300260029000000D2
:1000B0000000250028002B0000000000240027007D
:1000C0002A002801F80B11241FBECFEFD8E0DEBFB5
:1000D000CDBF12E0A0E0B1E0EEE9F1E202C0059090
:1000E0000D92A437B107D9F723E0A4E7B2E001C02D
:1000F0001D92AE3BB207E1F710E0C3E6D0E004C0CA
:100100002197FE010E94270FC136D107C9F70E942F
:10011000260C0C94CD100C940000809176029091E6
:1001200077020E944A030E943F0965EC71E084E176
:1001300093E00E94770C60910A0170910B0180910D
:100140007802909179020E94CB0180917A0290917D
:100150007B020C94E5030F9303E12AE049E068E099
:1001600080917602909177020E94040360E070E033
:1001700080917C0290917D020E94E80102E126E0DC
:1001800043E065E080917A0290917B020E946703D0
:1001900044E062E080917402909175020E947B02BB
:1001A0006BE080917802909179020E94B2014DE853
:1001B00050E060EA7FE080E090E00F910C94E1086D
:1001C000CF92DF92EF92FF9280917C0290917D021C
:1001D0000E94430280917A0290917B020E94EF0379
:1001E0006B017C01672B682B692BC1F080917C022D
:1001F00090917D020E94000290930B0180930A016E
:1002000067ED71E084E193E00E94840C4DE850E0DA
:10021000C701B6010E94E1080E9429098091740279
:10022000909175020E94BC02181619063CF4BC019C
:1002300080917802909179020E94CB0180917602A0
:1002400090917702FF90EF90DF90CF900C94530342
:10025000CF93DF938EE090E00E94350CEC018EE0AE
:10026000DE011D928A95E9F720E030E04FE06EE074
:10027000CE010E94730421E030E041E160E1CE0153
:1002800004960E94730422E030E04CE067E0CE0167
:1002900008960E9473041D861C86D0937D02C0932D
:1002A0007C0289E190E00E94350CFC0189E1DF01CC
:1002B0001D928A95E9F781E0868384E690E0918734
:1002C000808788EC90E0938782878FEF9FEF9587F8
:1002D00084874CEA5DE060E070E046875787608B7A
:1002E000718B48EB5BE060E070E0428B538B648B7A
:1002F000758B978B868B808FF0937B02E0937A02CD
:1003000081E090E00E94350CFC011082909379020C
:100310008093780286E090E00E94350CFC01118207
:100320001082138212821582148290937702809336
:1003300076028AE090E00E94350CFC018AE0DF0141
:100340001D928A95E9F782E090E09583848383E0AB
:1003500090E097838683F0937502E0937402DF91B7
:10036000CF910895CF93DF93EC01688326E040E8B6
:1003700055E260E070E084E193E00E94310B8881F7
:100380000E94C90481E00E94C60480ED97E0DF91DD
:10039000CF910C9408060F931F93CF93DF9300D057
:1003A000CDB7DEB78B017A83698362E0CE01019617
:1003B0000E946B064AE050E0B80184E193E00E949D
:1003C000290D0F900F90DF91CF911F910F910895FC
:1003D0000F931F93CF93DF93EC018B01CB01880F19
:1003E000991F880F991F61E070E08C0F9D1F0E947C
:1003F00088041D870C87DF91CF911F910F9108957D
:10040000FC01848595858230910581F468EE73E066
:1004100080E090E00E94400D31E020E0653F7140B7
:10042000810591050CF030E0832F922F0895CF9233
:10043000DF92EF92FF920F931F93CF93DF938C0184
:100440007B01C0E0D0E06801CC0EDD1EC6010E9439
:100450009B0461E070E08E159F0511F060E070E094
:10046000C6010E9488042496CC30D10561F7F801BA
:10047000F586E486DF91CF911F910F91FF90EF9069
:10048000DF90CF900895CF92DF92EF92FF920F937B
:100490001F93CF93DF938C01EC017C018CE0E80E7D
:1004A000F11CCE010E9491048823C1F0F801C4849C
:1004B000D584CE010E949B04C816D90679F0CE01DE
:1004C0000E949B04BC01C801DF91CF911F910F9145
:1004D000FF90EF90DF90CF900C9417022496CE15EA
:1004E000DF05F9F6DF91CF911F910F91FF90EF900B
:1004F000DF90CF9008958F929F92BF92CF92DF921C
:10050000EF92FF920F931F93CF93DF931F92CDB77C
:10051000DEB74C01B42E82E190E069830E94350C75
:100520006C0114E6E12EF12C00E010E020E040E048
:100530006981C6010E94BA09F401D182C08282E1B8
:1005400090E00E94350C6C0120E040E06B2D0E9491
:10055000BA09F401D382C28281E0808781870F903B
:10056000DF91CF911F910F91FF90EF90DF90CF908F
:10057000BF909F908F900895CF93DF93EC01888177
:1005800099810E94EF09888199810E944D0A8823F0
:1005900019F0888581110CC0888199810E94550AC3
:1005A000882351F08885811107C081E0888720C0A9
:1005B00018868C819D811EC08A819B810E94EF09D3
:1005C0008A819B810E944D0A882339F0898588237E
:1005D00021F019868E819F810DC08A819B810E94A6
:1005E000550A882329F08985811102C081E0898715
:1005F00080E090E0DF91CF910895FC0160817181EE
:10060000828193810C94DC088F929F92AF92BF926B
:10061000DF92EF92FF920F931F93CF93DF9300D05F
:10062000CDB7DEB74C01162FD02E86E090E02A839E
:1006300049830E94350C7C012A8130E0498150E0D9
:10064000612F70E00E949507F401F382E28282E15B
:1006500090E00E94350C5C0114E6E12EF12C00E0E4
:1006600010E020E040E06D2DC5010E94BA09F401C0
:10067000B582A482C4010F900F90DF91CF911F919A
:100680000F91FF90EF90DF90BF90AF909F908F9071
:100690000C94FD02FC01208131812F5F3F4F31839B
:1006A00020830C94FD02CF93DF93EC010E94FD02A6
:1006B0008C819D810E94EF098C819D810E944D0A51
:1006C000882311F019821882DF91CF9108956F92DB
:1006D0007F929F92AF92BF92CF92DF92EF92FF9262
:1006E0000F931F93CF93DF931F92CDB7DEB73C01DB
:1006F000942EC22ED02E82E190E069830E94350CA8
:100700005C0118ECE12EF12C00E010E021E040E06B
:100710006981C5010E94BA09F301B182A08282E118
:1007200090E00E94350C5C0114E6E12EF12C00E013
:1007300010E020E040E0692DC5010E94BA09F301F4
:10074000B382A28282E190E00E94350C5C0120E03D
:1007500040E06C2D0E94BA09F301B582A482D08ECC
:10076000DD2049F061E08D2D0E941E0E61E0F30155
:10077000808D0E945A0EF30116820F90DF91CF9167
:100780001F910F91FF90EF90DF90CF90BF90AF90AF
:100790009F907F906F900895FC01808D882319F0C1
:1007A00060E00C945A0E0895CF93DF93EC010E9401
:1007B000CC031E82DF91CF910895FC01808D8823A8
:1007C00019F061E00C945A0E0895CF93DF93EC0179
:1007D0000E94DD0381E08E83DF91CF910895CF9356
:1007E000DF93EC018E818823E1F0888199810E945A
:1007F000EF098F81882309F45EC0888199810E9466
:100800004D0A882309F457C0CE010E94D4031F82E9
:10081000888599859F8B8E8B6A897B898C899D8938
:100820005FC08C819D810E94EF09888199810E941F
:100830004D0A81111CC02E893F898885998528170A
:10084000390759F466EE71E084E193E00E94840C6C
:100850000E943F09CE010E94E5032E893F898C85C5
:100860009D852817390719F4CE010E94E5038C8174
:100870009D810E944D0A882359F068E172E084E16D
:1008800093E00E94840C0E943F09CE010E94E50380
:100890008F8181110CC0888199810E94EF09888124
:1008A00099810E944D0A811102C081E08F8360E02E
:1008B00070E0CB0115C08A819B810E94EF098A817B
:1008C0009B810E944D0A882319F38A859B859F8B03
:1008D0008E8BCE010E94D4036E857F85888999898D
:1008E000DF91CF910895CF93DF93EC01842F68833C
:1008F00049833B832A8361E00E941E0E60E0888169
:100900000E941E0E61E08881DF91CF910C945A0EF7
:10091000672B11F060E001C061E0FC0181810C9463
:100920005A0EFC0180810E948A0E21E0019709F095
:1009300020E0822F0895FC0182819381089586270B
:10094000082E8295807F8025092E982F82958F70A2
:100950000826869598278927880F880F880F802575
:100960000895982F96959695987028E0290F9217DC
:1009700049F0E92FF0E0EE5BFD4F3081831721F065
:100980009F5FF5CF80E00895892F08958093DD0261
:1009900008958093B40108950F931F93CF9390917E
:1009A000DB02992329F08091D8028F5F8093D802CF
:1009B0002091DA028091D902921759F0803510F017
:1009C0002DE101C02BE0820F8093D9029093DA02CF
:1009D00003C08C5E8093D9022091D902203A08F49A
:1009E0007AC08091D3029091D40296958795909386
:1009F000D4028093D3023091D802353028F0986029
:100A00009093D4028093D302205A2093D90210925B
:100A1000D8028091D702882309F44DC08091D20278
:100A20008F5F8093D2028C3008F455C00091D302BE
:100A30001091D402802F8F730E94B104C82FC80177
:100A400026E0969587952A95E1F70E94B10490E1FA
:100A5000C99F90011124822B9091800291110EC0A8
:100A6000809381029CEF980F9D3440F01092D70242
:100A700080917F028F5F80937F022DC0E091800282
:100A800091E09E0F90938002F0E0EE57FD4F80833F
:100A90009091800280918102981750F01092D702B5
:100AA00080917E028F5F80937E0281E08093D602E8
:100AB0001092D20210C08091D3029091D402883358
:100AC0009B4049F481E08093D7021092D2021092A9
:100AD00080021092D602CF911F910F9108952F920C
:100AE0003F924F925F926F927F928F929F92AF92BE
:100AF000BF92CF92DF92EF92FF921F93CF93DF933B
:100B0000CDB7DEB762970FB6F894DEBF0FBECDBF8C
:100B10006C015B011A018EE0E7EBF1E0DE0111965A
:100B200001900D928A95E1F7C114D10429F4D10105
:100B30001D921C9280E054C0E12CF12C83E0CC0C7F
:100B4000DD1CEE1CFF1C8A95D1F74E01B3E08B0E25
:100B5000911C11E0412C94E2592E94EF692E712CD6
:100B6000CB01A0E0B0E08F87988BA98BBA8BD40122
:100B70002D913D914D0140E050E0C301B2010E9432
:100B8000C70ECA01B901A70196010E94C70E223003
:100B900031054105510548F08F859889A989BA89A1
:100BA000281739074A075B07B8F01F5F1730F9F6B7
:100BB000223031054105510508F4B9CFC501A0E047
:100BC000B0E082179307A407B50708F4B0CFD101AE
:100BD0002D933C93812F04C0163009F4A8CFEECF9B
:100BE00062960FB6F894DEBF0FBECDBFDF91CF91F6
:100BF0001F91FF90EF90DF90CF90BF90AF909F90AC
:100C00008F907F906F905F904F903F902F900895BE
:100C1000CF93DF9300D0CDB7DEB7AE014F5F5F4F0C
:100C20006FEF7FEF0E946F05882351F110928000D3
:100C300098E09093810090918100892B80938100AE
:100C400089819A81909389008093880080916F00B8
:100C5000826080936F0061E08091B4010E941E0E5B
:100C600060E08091B5010E941E0E61E08091B601A6
:100C70000E941E0E6091DD028091B6010E945A0E04
:100C80000F900F90DF91CF910895CF931092E302D0
:100C90001092E2021092E1026091DD02C1E06C2745
:100CA0008091B6010E945A0EC093E002CF91089540
:100CB0006091DD028091B6010E945A0E60E0809141
:100CC000B4010E945A0E1092E00208958091E00251
:100CD0008111FCCF0895CF92DF92EF92FF920F9394
:100CE0001F93CF93DF936E3408F092C0C62F7C0120
:100CF000D3E0D60F0E9466066D2F8FEF9FEF0E9404
:100D00009F04ED2FF0E044E0F595E7954A95E1F773
:100D1000EE5BFD4F208120931401DF70AD2FB0E01A
:100D2000AE5BBD4F2C91209315018701EC2EF12C69
:100D3000EE0CFF1CC12CD12CCE14DF0429F1F801DC
:100D400060810E949F04D601A45FBE4FF8012081FC
:100D5000E22FF0E034E0F595E7953A95E1F7EE5BA8
:100D6000FD4F20811A962C931A97F80121918F013B
:100D7000E22FEF70F0E0EE5BFD4F20811B962C938D
:100D8000F2E0CF0ED11CD8CF61E06C0F660FFC01F2
:100D9000E095F095C62FD0E0CC5EDE4FDF0184E019
:100DA000B695A7958A95E1F7AF70BB27AE5BBD4FAF
:100DB0008C918883A1E0A60FB0E0AC5EBE4FEF013E
:100DC000CF70DD27CE5BDD4F88818C93A2E0A60F2C
:100DD000B0E0AC5EBE4FEF01CD2FDD27C295CF70E6
:100DE000CE5BDD4F88818C93A3E0A60FB0E0AC5EB4
:100DF000BE4FEF2FFF27EF70FF27EE5BFD4F808187
:100E00008C93645F6093E4020E94450681E001C018
:100E100080E0DF91CF911F910F91FF90EF90DF90D5
:100E2000CF9008951F920F920FB60F9211242F9317
:100E30003F934F935F936F937F938F939F93AF9362
:100E4000BF93EF93FF938091D502882321F0809187
:100E5000E002882371F18091E0028823C9F080913B
:100E6000E10291E0980F9093E102811111C0E091AD
:100E7000E3028091E402E81730F10E945806809165
:100E8000DE029091DF0201969093DF028093DE02F2
:100E90008091E102883010F01092E1028091D50239
:100EA000882391F18091E00281112EC00E94CC0430
:100EB0002BC08091B5010E948A0E9091DC02892797
:100EC0008093DB02C8CFF0E0E45FFE4F9081809119
:100ED000E20221E0280F2093E20261E070E001C00D
:100EE000660F8A95EAF769238091B4010E945A0E31
:100EF0008091E202863060F21092E2028091E30279
:100F00008F5F8093E302C4CFFF91EF91BF91AF91C8
:100F10009F918F917F916F915F914F913F912F9111
:100F20000F900FBE0F901F901895CF92DF92FF92F7
:100F30000F931F93CF93DF9300D01F92CDB7DEB7EF
:100F40006C01F62E042F122F61E08F2D3B835A8304
:100F500079830E941E0E61E0802F0E941E0E61E0C8
:100F6000812F0E941E0EF601F08279817183028327
:100F70005A81538314833B813583E5EEF2E090EC94
:100F8000908329EF218384EA828380EB838389E93C
:100F9000848382E9858332E8368338EF378330E80B
:100FA000308730E9318738E8328733E8338736ECE9
:100FB000348731EA358736E836873EE8378732ECC2
:100FC000308B39E8318B228B21EF238B23EC248B60
:100FD00029EA258B968B9CE8978B98E9908F818FD7
:100FE00081EC828F81E9838F8EEF848F0F900F9039
:100FF0000F90DF91CF911F910F91FF90DF90CF90D5
:101000000895FF920F931F93CF93DF93EC01F62E79
:1010100008E010E0F7FE02C061E001C060E08C81F2
:101020000E945A0EFF0C60E088810E945A0E61E017
:1010300088810E945A0E0150110961F7DF91CF910A
:101040001F910F91FF9008950F931F93CF93DF93FC
:101050001F92CDB7DEB78C0149830E9401084981F8
:10106000642FC8010E94010860E0F80182810E949B
:101070005A0E61E0F80182810F90DF91CF911F91AC
:101080000F910C945A0E3F924F925F926F927F9203
:101090008F929F92AF92BF92CF92DF92EF92FF9288
:1010A0000F931F93CF93DF938C01EB014A01322EF4
:1010B0002AE030E0CB01B9010E94B30E2C01E4E636
:1010C000F0E0CE01BF010E94B30E84199509B90169
:1010D0000E94B30E9B0188EEE82E83E0F82ECE012D
:1010E000B7010E94B30E821B930B84199509BF01AF
:1010F0000E94B30EFB01CE0160E177E20E94B30EC5
:101100008E1B9F0B821B930B84199509B7010E94BC
:10111000B30EC12CD12CC2018B519D4F2C01C901A2
:101120008B519D4F3C01CF018B519D4F7C01FB01A9
:10113000EB51FD4F5F018C149D0464F141E0F2011D
:101140006081C8010E942408CA30D10514F43320FC
:1011500031F042E0F3016081C8010E942408C436E6
:10116000D10514F4332031F044E0F7016081C80167
:101170000E942408C83EF3E0DF0714F4332031F066
:1011800048E0F5016081C8010E942408FFEFCF1AF2
:10119000DF0AD1CFDF91CF911F910F91FF90EF9098
:1011A000DF90CF90BF90AF909F908F907F906F9087
:1011B0005F904F903F90089520E040E050E00C9405
:1011C0004308611571058105910569F481E090E09E
:1011D000A0E0B0E080930B0390930C03A0930D0369
:1011E000B0930E0308C060930B0370930C038093BD
:1011F0000D0390930E0350930A03409309038091CB
:1012000070008E7F809370008091B0008C7F8093FF
:10121000B0008091B100877F8093B1008091B600CB
:101220008F7D8093B600809170008D7F80937000D9
:101230008091B10084608093B1008091B1008C7F77
:101240008093B10086E090E09093030380930203C3
:10125000089510920503109206031092070310924E
:10126000080310920403809102039091030380937A
:10127000B200E0E7F0E08081816080830895E0E7DC
:10128000F0E080818E7F80830895809105039091A6
:101290000603A0910703B09108030196A11DB11D9B
:1012A0008093050390930603A0930703B09308036C
:1012B0008091050390910603A0910703B091080364
:1012C00040910B0350910C0360910D0370910E033C
:1012D00084179507A607B70710F1809104038111C1
:1012E0001EC081E080930403809105039091060362
:1012F000A0910703B0910803841B950BA60BB70BB5
:101300008093050390930603A0930703B09308030B
:10131000E0910903F0910A030995109204030895DE
:101320001F920F920FB60F9211242F933F934F935A
:101330005F936F937F938F939F93AF93BF93EF933D
:10134000FF9380910203909103038093B2000E9467
:101350004509FF91EF91BF91AF919F918F917F913F
:101360006F915F914F913F912F910F900FBE0F9012
:101370001F901895EF92FF920F931F93CF93DF93D7
:10138000EC01862F688349832A83EE86FF86088BCB
:10139000198B442311F062E001C060E00E941E0E30
:1013A00088810E948A0E8B839A81992321F091E093
:1013B000811190E09B830E94AE0D6E837F838887AE
:1013C00099872B812C831D826A877B878C879D87D9
:1013D000DF91CF911F910F91FF90EF900895CF92E1
:1013E000DF92EF92FF920F931F93CF93DF93EC0165
:1013F0000E94AE0D6093100370931103809312034B
:101400009093130388810E948A0E80930F039A8120
:10141000992329F091E0811190E090930F0340917E
:1014200010035091110360911203709113038A8588
:101430009B85AC85BD856A017B01C81AD90AEA0A79
:10144000FB0A0E851F85288939899B81C016D10624
:10145000E206F30638F44E835F83688779871D823E
:10146000892F12C09C8380910F038B834E835F83EF
:1014700068877987891739F04A875B876C877D870A
:1014800091E09D8301C01D82DF91CF911F910F914B
:10149000FF90EF90DF90CF90089521E0FC018381D1
:1014A000811101C020E0822F089521E0FC01838199
:1014B000811120E0822F0895FC01918D228D892FCA
:1014C00090E0805C9F4F821B91098F73992708954C
:1014D000FC01918D828D981731F0828DE80FF11DFE
:1014E000858D90E008958FEF9FEF0895FC01918D19
:1014F000828D981761F0828DDF01A80FB11D5D9676
:101500008C91928D9F5F9F73928F90E008958FEFE3
:101510009FEF0895FC01538D448D252F30E0842FDB
:1015200090E0821B930B541710F0CF96089501970B
:1015300008958EEE9BE0892B49F080E090E0892BA6
:1015400029F00E94EE0B81110C9400000895FC011B
:10155000848DDF01A80FB11DA35ABF4F2C91848D3C
:1015600090E001968F739927848FA689B7892C9371
:10157000A089B1898C9180648C93938D848D98130C
:1015800006C00288F389E02D80818F7D80830895D5
:10159000CF93DF93EC01888D8823C9F0EA89FB891A
:1015A000808185FD05C0A889B9898C9186FD0FC011
:1015B0000FB607FCF5CF808185FFF2CFA889B989E6
:1015C0008C9185FFEDCFCE010E94A70AE7CFDF9176
:1015D000CF910895EF92FF920F931F93CF93DF93D4
:1015E000EC0181E0888F9B8D8C8D981305C0E88974
:1015F000F989808185FD24C0F62E0B8D10E00F5FE8
:101600001F4F0F731127E02E8C8DE8120CC00FB600
:1016100007FCFACFE889F989808185FFF5CFCE01F3
:101620000E94A70AF1CF8B8DFE01E80FF11DE35A4E
:10163000FF4FF0820B8FEA89FB898081806207C0AF
:10164000EE89FF896083E889F989808180648083DD
:1016500081E090E0DF91CF911F910F91FF90EF908B
:101660000895CF92DF92EF92FF921F93CF93DF9373
:10167000EC016A017B01122FE889F98982E08083FD
:101680004115514E61057105B1F060E079E08DE3DF
:1016900090E0A70196010E94C70EDA01C9010197E7
:1016A000A109B109B695A79597958795AC01411504
:1016B00080E15807A8F0E889F989108260E874E8A9
:1016C0008EE190E0A70196010E94C70EBA01A90120
:1016D000415051096109710976956795579547956C
:1016E000EC85FD855083EE85FF854083188EEC895F
:1016F000FD891083EA89FB89808180618083EA8982
:10170000FB89808188608083EA89FB898081806889
:101710008083EA89FB8980818F7D8083DF91CF91EF
:101720001F91FF90EF90DF90CF9008951F920F923E
:101730000FB60F9211242F938F939F93EF93FF93E4
:10174000E0912403F09125038081E0912A03F09138
:101750002B0382FD12C0908180912D038F5F8F73C8
:1017600020912E03821751F0E0912D03F0E0EC5E02
:10177000FC4F958F80932D0301C08081FF91EF91E5
:101780009F918F912F910F900FBE0F901F901895E2
:101790001F920F920FB60F9211242F933F934F93E6
:1017A0005F936F937F938F939F93AF93BF93EF93C9
:1017B000FF9384E193E00E94A70AFF91EF91BF910C
:1017C000AF919F918F917F916F915F914F913F91D9
:1017D0002F910F900FBE0F901F90189584E193E00A
:1017E0000E945C0A21E0892B09F420E0822F0895F1
:1017F000E4E1F3E01382128288EE93E0A0E0B0E02F
:1018000084839583A683B78386E592E09183808362
:1018100085EC90E09587848784EC90E097878687B5
:1018200080EC90E0918B808B81EC90E0938B828BAD
:1018300082EC90E0958B848B86EC90E0978B868B86
:10184000118E128E138E148E089508950E94BA0D73
:101850000E94250C0E94AB00C9E9DAE00E94E0007A
:101860002097E1F30E94990AF9CF0C943C0FCF9294
:10187000DF92EF92FF920F931F93CF93DF936C0150
:101880007A018B01C0E0D0E0CE15DF0589F0D801E8
:101890006D918D01D601ED91FC910190F081E02DCB
:1018A000C6010995892B11F47E0102C02196ECCF67
:1018B000C701DF91CF911F910F91FF90EF90DF90C3
:1018C000CF9008956115710579F0FB01019000201A
:1018D000E9F73197AF01461B570BDC01ED91FC9105
:1018E0000280F381E02D099480E090E008950C944B
:1018F000620CDC01ED91FC910190F081E02D0994E6
:1019000064E672E00C94620C0F931F93CF93DF9305
:10191000EC010E94620C8C01CE010E94800C800FB1
:10192000911FDF91CF911F910F9108954F925F9278
:101930006F927F92EF92FF920F931F93CF93DF935B
:10194000CDB7DEB7A1970FB6F894DEBF0FBECDBFFF
:101950007C01FA01CB0119A2223008F42AE08E01A1
:101960000F5D1F4F422E512C612C712CBF01A30122
:1019700092010E94C70EF901CA01015011096A3093
:1019800014F4605D01C0695CD8016C93232B242B97
:10199000252B61F7B801C7010E94620CA1960FB612
:1019A000F894DEBF0FBECDBFDF91CF911F910F9195
:1019B000FF90EF907F906F905F904F900895CF923F
:1019C000DF92EF92FF920F931F93CF93DF93EC017F
:1019D0006A017B012115310579F4E881F9810190D3
:1019E000F081E02D642FDF91CF911F910F91FF9037
:1019F000EF90DF90CF9009942A303105E9F477FF1A
:101A00001AC06DE20E94790C8C0144275527BA0157
:101A10004C195D096E097F092AE0CE010E94960CDF
:101A2000800F911FDF91CF911F910F91FF90EF9049
:101A3000DF90CF9008952AE0B701A601CE01DF9193
:101A4000CF911F910F91FF90EF90DF90CF900C946A
:101A5000960C0F931F93CF93DF93EC019A01AB0188
:101A6000770F660B770B0E94DF0C8C01CE010E9472
:101A7000800C800F911FDF91CF911F910F910895DE
:101A8000CF93DF9300D000D0CDB7DEB761157105DD
:101A90008105910579F09B01AC0169833A834B8301
:101AA0005C830E94B71029813A814B815C810E943E
:101AB000E90E03C060E070E0CB010F900F900F9033
:101AC0000F90DF91CF9108951F920F920FB60F9252
:101AD00011242F933F938F939F93AF93BF93809144
:101AE000B2039091B303A091B403B091B5033091C8
:101AF000B10323E0230F2D3720F40196A11DB11D62
:101B000005C026E8230F0296A11DB11D2093B10345
:101B10008093B2039093B303A093B403B093B5033F
:101B20008091B6039091B703A091B803B091B90327
:101B30000196A11DB11D8093B6039093B703A093A6
:101B4000B803B093B903BF91AF919F918F913F912B
:101B50002F910F900FBE0F901F9018952FB7F894EC
:101B60006091B2037091B3038091B4039091B50377
:101B70002FBF0895789484B5826084BD84B5816058
:101B800084BD85B5826085BD85B5816085BDEEE685
:101B9000F0E0808181608083E1E8F0E01082808164
:101BA00082608083808181608083E0E8F0E08081D2
:101BB00081608083E1EBF0E0808184608083E0EBF2
:101BC000F0E0808181608083EAE7F0E080818460DA
:101BD0008083808182608083808181608083808136
:101BE000806880831092C1000895833081F028F4CA
:101BF000813099F08230A1F008958730A9F08830C3
:101C0000B9F08430D1F4809180008F7D03C0809141
:101C100080008F7780938000089584B58F7702C00D
:101C200084B58F7D84BD08958091B0008F7703C007
:101C30008091B0008F7D8093B0000895CF93DF93A3
:101C400090E0FC01E458FF4F2491FC01E057FF4F66
:101C50008491882361F190E0880F991FFC01E8547A
:101C6000FF4FC591D491FC01E255FF4FA591B4916E
:101C7000611109C09FB7F8948881209582238883D9
:101C8000EC912E230BC0623061F49FB7F894388139
:101C9000822F809583238883EC912E2B2C939FBFDA
:101CA00006C08FB7F894E8812E2B28838FBFDF9171
:101CB000CF9108951F93CF93DF93282F30E0F90140
:101CC000E859FF4F8491F901E458FF4FD491F9018D
:101CD000E057FF4FC491CC23C9F0162F81110E9409
:101CE000F50DEC2FF0E0EE0FFF1FE255FF4FA59131
:101CF000B4918FB7F894111105C09C91ED2FE09528
:101D0000E92302C0EC91ED2BEC938FBFDF91CF91D3
:101D10001F910895CF93DF93282F30E0F901E85900
:101D2000FF4F8491F901E458FF4FD491F901E05736
:101D3000FF4FC491CC2391F081110E94F50DEC2F3F
:101D4000F0E0EE0FFF1FEC55FF4FA591B491EC9121
:101D5000ED2381E090E021F480E002C080E090E09B
:101D6000DF91CF91089597FB072E16F4009407D0CA
:101D700077FD09D00E94130F07FC05D03EF4909523
:101D800081959F4F0895709561957F4F0895A1E2C9
:101D90001A2EAA1BBB1BFD010DC0AA1FBB1FEE1FE5
:101DA000FF1FA217B307E407F50720F0A21BB30B30
:101DB000E40BF50B661F771F881F991F1A9469F7AC
:101DC00060957095809590959B01AC01BD01CF0108
:101DD0000895052E97FB1EF400940E94000F57FDF6
:101DE00007D00E94C70E07FC03D04EF40C94000FDE
:101DF00050954095309521953F4F4F4F5F4F089537
:101E000090958095709561957F4F8F4F9F4F089566
:101E10000E942D0FA59F900DB49F900DA49F800D43
:101E2000911D11240895AA1BBB1B51E107C0AA1FD5
:101E3000BB1FA617B70710F0A61BB70B881F991F6B
:101E40005A95A9F780959095BC01CD010895EE0FA4
:101E5000FF1F0590F491E02D0994A29FB001B39F5C
:101E6000C001A39F700D811D1124911DB29F700DA3
:101E7000811D1124911D0895CF93DF938230910528
:101E800010F482E090E0E091BC03F091BD0320E00B
:101E900030E0C0E0D0E0309711F140815181481727
:101EA0005907C0F04817590761F482819381209740
:101EB00019F09B838A832BC09093BD038093BC034E
:101EC00026C02115310519F04217530718F49A015D
:101ED000BE01DF01EF010280F381E02DDCCF21158F
:101EE000310509F1281B390B2430310590F4129685
:101EF0008D919C9113976115710521F0FB019383DE
:101F0000828304C09093BD038093BC03FD0132968D
:101F100044C0FD01E20FF31F8193919322503109D8
:101F20002D933C933AC02091BA033091BB03232BED
:101F300041F420910201309103013093BB032093BF
:101F4000BA0320910001309101012115310541F4BE
:101F50002DB73EB74091040150910501241B350B6C
:101F6000E091BA03F091BB03E217F307A0F42E1B34
:101F70003F0B2817390778F0AC014E5F5F4F2417ED
:101F8000350748F04E0F5F1F5093BB034093BA03D1
:101F90008193919302C0E0E0F0E0CF01DF91CF9117
:101FA00008950F931F93CF93DF93009709F48CC08C
:101FB000FC013297138212820091BC031091BD0381
:101FC0000115110581F420813181820F931F209129
:101FD000BA033091BB032817390779F5F093BB0397
:101FE000E093BA0371C0D80140E050E0AE17BF07DC
:101FF00050F412962D913C911397AD0121153105A6
:1020000009F1D901F3CF9D01DA0133832283608185
:102010007181860F971F8217930769F4EC0128815D
:102020003981260F371F2E5F3F4F318320838A81EE
:102030009B8193838283452B29F4F093BD03E09326
:10204000BC0342C01396FC93EE931297ED014991A5
:1020500059919E01240F351FE217F30771F4808117
:102060009181840F951F029611969C938E93828185
:10207000938113969C938E931297E0E0F0E0D80141
:1020800012968D919C911397009719F0F8018C018D
:10209000F6CF8D919C9198012E5F3F4F820F931F39
:1020A0002091BA033091BB032817390769F43097A0
:1020B00029F41092BD031092BC0302C01382128255
:1020C0001093BB030093BA03DF91CF911F910F913F
:1020D00008958F929F92AF92BF92CF92DF92EF922C
:1020E000FF92CF93DF93EC01688179818A819B8194
:1020F000611571058105910521F464E279ED8BE5A7
:1021000097E02DE133EF41E050E00E94E90E4901F4
:102110005A019B01AC01A7EAB1E40E94080F6B01D0
:102120007C01ACEEB4EFA50194010E94C810DC0163
:10213000CB018C0D9D1DAE1DBF1DB7FF03C00197C8
:10214000A109B04888839983AA83BB83BC01CD01D0
:102150009F77DF91CF91FF90EF90DF90CF90BF906E
:10216000AF909F908F9008950E946910089586E027
:1021700091E00E9469100895609306017093070131
:1021800080930801909309010895B7FF0C94080FFC
:0E2190000E94080F821B930B0895F894FFCF56
:10219E000000BE03800001000000FFFF2A2A2A2A49
:1021AE002A2A382C00000000000000000000000069
:1021BE000000000000000000000000000000000011
:1021CE000000000000000000000000000000000001
:1021DE0000000000000000000000000000000000F1
:1021EE0000000000000000000000000000000000E1
:1021FE0000000000000000000000000000000000D1
:10220E0000000000000000000000000000000000C0
:10221E0000000000000000000000000000000000B0
:10222E0000000000000000000000000000000000A0
:10223E000000000000000000000000000000000090
:10224E00000000000C0B0A00000100080040000016
:10225E00010004050D537461727420636F6D6D611E
:10226E006E64203E3E200053746172742074696D5A
:10227E0065722E2E2E005374617274207365717503
:10228E00656E63652063616E63656C6C65642028A2
:10229E007269666C65206973206261636B20746F6E
:1022AE0020686F726E7329005374617274207365A7
:1022BE007175656E63652063616E63656C6C6564D4
:1022CE00202863616E63656C20707265737365643C
:1022DE0029000D0E131516191A1C232526292A2C32
:1022EE00323400000000EA0A370C8A0AC80A5C0A77
:1022FE00760A680A0D0A006E616E00696E66006FDE
:04230E0076660000EF
:00000001FF
