:100000000C9463000C948B000C948B000C948B006C
:100010000C948B000C948B000C948B000C948B0034
:100020000C948B000C945E090C948B000C94F206DB
:100030000C948B000C948B000C948B000C948B0014
:100040000C946E0E0C948B000C94C40A0C94070B49
:100050000C948B000C948B000C948B000C948B00F4
:100060000C948B000C948B00000000070002010030
:100070000003040600000000000000000102040864
:100080001020408001020408102001020408102002
:10009000040404040404040402020202020203032E
:1000A00003030303000000002300260029000000D2
:1000B0000000250028002B0000000000240027007D
:1000C0002A002801C60B11241FBECFEFD8E0DEBFE7
:1000D000CDBF12E0A0E0B1E0E2EEF1E202C0059097
:1000E0000D92A236B107D9F723E0A2E6B2E001C033
:1000F0001D92A93BB207E1F710E0C3E6D0E004C0CF
:100100002197FE010E943010C136D107C9F70E9425
:100110003E0D0C94EF100C940000809164029091BD
:1001200065020E9436030E940D0965EC71E082E0D1
:1001300093E00E943E0C6091040170910501809152
:100140006602909167020E94CA01809168029091B4
:1001500069020C94C6030F9303E12AE049E068E0CA
:1001600080916402909165020E94FB0260E070E061
:1001700080916A0290916B020E94E70102E126E001
:1001800043E065E080916802909169020E94530308
:1001900044E062E080916202909163020E947A02E0
:1001A0006BE080916602909167020E94B2014DE877
:1001B00050E060EA7FE080E090E00F910C94AF089F
:1001C000CF92DF92EF92FF9280916A0290916B0240
:1001D0000E94420280916802909169020E94D003BD
:1001E0006B017C01672B682B692BC1F080916A023F
:1001F00090916B020E94FF0190930501809304018E
:1002000067ED71E082E093E00E945B0C4DE850E006
:10021000C701B6010E94AF080E94F70880916202F0
:10022000909163020E94B302181619063CF4BC01B7
:1002300080916602909167020E94CA0180916402D7
:1002400090916502FF90EF90DF90CF900C943F0368
:10025000CF93DF938EE090E00E944B0DEC018EE097
:10026000DE011D928A95E9F720E030E04FE06EE074
:10027000CE010E94540421E030E041E160E1CE0172
:1002800004960E94540422E030E04CE067E0CE0186
:1002900008960E9454041D861C86D0936B02C0935E
:1002A0006A0289E190E00E944B0DFC0189E1DF01C7
:1002B0001D928A95E9F781E0868384E690E0918734
:1002C000808788EC90E0938782878FEF9FEF9587F8
:1002D00084874CEA5DE060E070E046875787608B7A
:1002E000718B48EB5BE060E070E0428B538B648B7A
:1002F000758B978B868B808FF0936902E0936802F1
:1003000081E090E00E944B0DFC0110829093670207
:100310008093660286E090E00E944B0DFC01118202
:100320001082138212821582148290936502809348
:1003300064028AE090E00E944B0DFC018AE0DF013C
:100340001D928A95E9F782E090E09583848383E0AB
:1003500090E097838683F0936302E0936202DF91DB
:10036000CF910895CF93DF93EC01688340E855E285
:1003700060E070E082E093E00E94420B88810E947E
:10038000AA0481E00E94A70480ED97E0DF91CF915D
:100390000C94E9050F931F93CF93DF9300D0CDB753
:1003A000DEB78B017A83698362E0CE0101960E94F9
:1003B0004C064AE050E0B80182E093E00E94120D42
:1003C0000F900F90DF91CF911F910F9108950F9390
:1003D0001F93CF93DF93EC018B01CB01880F991F03
:1003E000880F991F61E070E08C0F9D1F0E946904C7
:1003F0001D870C87DF91CF911F910F910895FC010C
:10040000848595858230910581F468EE73E080E003
:1004100090E00E94240D31E020E0653F71408105AD
:1004200091050CF030E0832F922F0895CF92DF9248
:10043000EF92FF920F931F93CF93DF938C017B0179
:10044000C0E0D0E06801CC0EDD1EC6010E947C0435
:1004500061E070E08E159F0511F060E070E0C6016C
:100460000E9469042496CC30D10561F7F801F58625
:10047000E486DF91CF911F910F91FF90EF90DF9075
:10048000CF900895CF92DF92EF92FF920F931F9338
:10049000CF93DF938C01EC017C018CE0E80EF11C22
:1004A000CE010E9472048823C1F0F801C484D5846F
:1004B000CE010E947C04C816D90679F0CE010E94B4
:1004C0007C04BC01C801DF91CF911F910F91FF9077
:1004D000EF90DF90CF900C9416022496CE15DF0596
:1004E000F9F6DF91CF911F910F91FF90EF90DF9080
:1004F000CF900895AF92BF92CF92DF92EF92FF928A
:100500000F931F93CF93DF93EC01A62EB42E82E1BD
:1005100090E00E944B0D6C0114E6E12EF12C00E0FE
:1005200010E020E040E06A2DC6010E948809D982CF
:10053000C88282E190E00E944B0D6C0120E040E017
:100540006B2D0E948809DB82CA8281E088878987B7
:10055000DF91CF911F910F91FF90EF90DF90CF909F
:10056000BF90AF900895CF93DF93EC01888199817C
:100570000E94BD09888199810E941B0A882319F075
:10058000888581110CC0888199810E94230A882363
:1005900051F08885811107C081E0888720C01886C6
:1005A0008C819D811EC08A819B810E94BD098A81A8
:1005B0009B810E941B0A882339F08985882321F0BA
:1005C00019868E819F810DC08A819B810E94230A9A
:1005D000882329F08985811102C081E0898780E024
:1005E00090E0DF91CF910895FC016081718182815B
:1005F00093810C94AA08BF92CF92DF92EF92FF9260
:100600000F931F93CF93DF93EC01162FF42EE22E5E
:10061000B02E86E090E00E944B0D6C012E2D30E054
:100620004F2D50E0612F70E00E947507DB82CA8277
:1006300082E190E00E944B0D6C0114E6E12EF12C5A
:1006400000E010E020E040E06B2DC6010E94880928
:10065000DD82CC82CE01DF91CF911F910F91FF906F
:10066000EF90DF90CF90BF900C94F402FC012081BA
:1006700031812F5F3F4F318320830C94F402CF935D
:10068000DF93EC010E94F4028C819D810E94BD09E0
:100690008C819D810E941B0A882311F01982188287
:1006A000DF91CF9108958F929F92AF92BF92CF9298
:1006B000DF92EF92FF920F931F93CF93DF93EC01A2
:1006C000862E942EC22ED02E82E190E00E944B0DF9
:1006D0005C0118ECE12EF12C00E010E021E040E09C
:1006E000682DC5010E948809B982A88282E190E044
:1006F0000E944B0D5C0114E6E12EF12C00E010E0AD
:1007000020E040E0692DC5010E948809BB82AA82D1
:1007100082E190E00E944B0D5C0120E040E06C2DF6
:100720000E948809BD82AC82D88EDD2041F061E054
:100730008D2D0E94280F61E0888D0E94640F1E821B
:10074000DF91CF911F910F91FF90EF90DF90CF90AD
:10075000BF90AF909F908F900895FC01808D88236B
:1007600019F060E00C94640F0895CF93DF93EC01CF
:100770000E94AD031E82DF91CF910895FC01808D10
:10078000882319F061E00C94640F0895CF93DF93F0
:10079000EC010E94BE0381E08E83DF91CF9108952A
:1007A000CF93DF93EC018E818823E1F088819981DA
:1007B0000E94BD098F81882309F45EC088819981D8
:1007C0000E941B0A882309F457C0CE010E94B5037A
:1007D0001F82888599859F8B8E8B6A897B898C89FE
:1007E0009D895FC08C819D810E94BD09888199810E
:1007F0000E941B0A81111CC02E893F89888599851A
:100800002817390759F466EE71E082E093E00E9400
:100810005B0C0E940D09CE010E94C6032E893F8900
:100820008C859D852817390719F4CE010E94C603CF
:100830008C819D810E941B0A882359F068E172E037
:1008400082E093E00E945B0C0E940D09CE010E94A1
:10085000C6038F8181110CC0888199810E94BD09D6
:10086000888199810E941B0A811102C081E08F83D7
:1008700060E070E0CB0115C08A819B810E94BD09B8
:100880008A819B810E941B0A882319F38A859B8594
:100890009F8B8E8BCE010E94B5036E857F858889E4
:1008A0009989DF91CF910895CF93DF93EC01842F45
:1008B000688349833B832A8361E00E94280F60E0BC
:1008C00088810E94280F61E08881DF91CF910C948C
:1008D000640F672B11F060E001C061E0FC018181D1
:1008E0000C94640FFC0180810E94930F21E001971A
:1008F00009F020E0822F0895FC0182819381089500
:100900008627082E8295807F8025092E982F829534
:100910008F700826869598278927880F880F880F5B
:1009200080250895982F96959695987028E0290F20
:10093000921749F0E92FF0E0EE5BFD4F308183170D
:1009400021F09F5FF5CF80E00895892F089580936F
:10095000CB0208958093AE0108950F931F93CF9318
:100960009091C902992329F08091C6028F5F8093EC
:10097000C6022091C8028091C702921759F08035B3
:1009800010F02DE101C02BE0820F8093C7029093FD
:10099000C80203C08C5E8093C7022091C702203A30
:1009A00008F47AC08091C1029091C2029695879511
:1009B0009093C2028093C1023091C602353028F074
:1009C00098609093C2028093C102205A2093C7027C
:1009D0001092C6028091C502882309F44DC080910F
:1009E000C0028F5F8093C0028C3008F455C0009124
:1009F000C1021091C202802F8F730E949204C82FEF
:100A0000C80126E0969587952A95E1F70E94920401
:100A100090E1C99F90011124822B90916E02911157
:100A20000EC080936F029CEF980F9D3440F010929F
:100A3000C50280916D028F5F80936D022DC0E091A1
:100A40006E0291E09E0F90936E02F0E0E059FD4F30
:100A5000808390916E0280916F02981750F01092EF
:100A6000C50280916C028F5F80936C0281E080935D
:100A7000C4021092C00210C08091C1029091C202C3
:100A800088339B4049F481E08093C5021092C002F4
:100A900010926E021092C402CF911F910F9108958F
:100AA0002F923F924F925F926F927F928F929F927E
:100AB000AF92BF92CF92DF92EF92FF921F93CF93AC
:100AC000DF93CDB7DEB762970FB6F894DEBF0FBEE7
:100AD000CDBF6C015B011A018EE0E7EBF1E0DE01B6
:100AE000119601900D928A95E1F7C114D10429F471
:100AF000D1011D921C9280E054C0E12CF12C83E0C6
:100B0000CC0CDD1CEE1CFF1C8A95D1F74E01B3E026
:100B10008B0E911C11E0412C94E2592E94EF692E1A
:100B2000712CCB01A0E0B0E08F87988BA98BBA8B9A
:100B3000D4012D913D914D0140E050E0C301B2013F
:100B40000E94D00FCA01B901A70196010E94D00FDF
:100B5000223031054105510548F08F859889A989D2
:100B6000BA89281739074A075B07B8F01F5F1730A3
:100B7000F9F6223031054105510508F4B9CFC50118
:100B8000A0E0B0E082179307A407B50708F4B0CF40
:100B9000D1012D933C93812F04C0163009F4A8CFC6
:100BA000EECF62960FB6F894DEBF0FBECDBFDF91D9
:100BB000CF911F91FF90EF90DF90CF90BF90AF90BB
:100BC0009F908F907F906F905F904F903F902F906D
:100BD0000895CF93DF9300D0CDB7DEB7AE014F5F5E
:100BE0005F4F6FEF7FEF0E945005882351F1109205
:100BF000800098E09093810090918100892B8093F0
:100C0000810089819A8190938900809388008091E6
:100C10006F00826080936F0061E08091AE010E945E
:100C2000280F60E08091AF010E94280F61E0809161
:100C3000B0010E94280F6091CB028091B0010E9408
:100C4000640F0F900F90DF91CF910895CF93109282
:100C5000D1021092D0021092CF026091CB02C1E07B
:100C60006C278091B0010E94640FC093CE02CF9197
:100C700008956091CB028091B0010E94640F60E002
:100C80008091AE010E94640F1092CE02089580916F
:100C9000CE028111FCCF0895AF92BF92CF92DF9226
:100CA000EF92FF920F931F93CF93DF936E3408F070
:100CB0008DC0C62F6C01D3E0D60F0E9447066D2F62
:100CC0008FEF9FEF0E948004ED2FF0E044E0F59558
:100CD000E7954A95E1F7EE5BFD4F208120930E01E9
:100CE000DF70AD2FB0E0AE5BBD4F2C9120930F01B4
:100CF00056E0E52E51E0F52E8601CC0ED11C22E007
:100D0000E20EF11CC016D106E9F05801D8016C9131
:100D10000E948004D801ED918D01F0E034E0F5955A
:100D2000E7953A95E1F7EE5BFD4F2081F7012087CB
:100D3000D501EC91EF70F0E0EE5BFD4F2081F70103
:100D40002187DDCF61E06C0F660FFC01E095F09527
:100D5000C62FD0E0C25FDE4FDF0184E0B695A795D5
:100D60008A95E1F7AF70BB27AE5BBD4F8C9188834E
:100D7000A1E0A60FB0E0A25FBE4FEF01CF70DD276C
:100D8000CE5BDD4F88818C93A2E0A60FB0E0A25F1E
:100D9000BE4FEF01CD2FDD27C295CF70CE5BDD4F6B
:100DA00088818C93A3E0A60FB0E0A25FBE4FEF2F27
:100DB000FF27EF70FF27EE5BFD4F80818C93645F10
:100DC0006093D2020E94260681E001C080E0DF919C
:100DD000CF911F910F91FF90EF90DF90CF90BF9038
:100DE000AF9008951F920F920FB60F9211242F9378
:100DF0003F934F935F936F937F938F939F93AF93A3
:100E0000BF93EF93FF938091C302882321F08091D9
:100E1000CE02882371F18091CE028823C9F080919F
:100E2000CF0291E0980F9093CF02811111C0E09111
:100E3000D1028091D202E81730F10E9439068091E8
:100E4000CC029091CD0201969093CD028093CC027A
:100E50008091CF02883010F01092CF028091C302AF
:100E6000882391F18091CE0281112EC00E94AD04A1
:100E70002BC08091AF010E94930F9091CA028927E5
:100E80008093C902C8CFF0E0EA5FFE4F9081809165
:100E9000D00221E0280F2093D00261E070E001C071
:100EA000660F8A95EAF769238091AE010E94640F6C
:100EB0008091D002863060F21092D0028091D102EF
:100EC0008F5F8093D102C4CFFF91EF91BF91AF911B
:100ED0009F918F917F916F915F914F913F912F9152
:100EE0000F900FBE0F901F901895CF92DF92EF9248
:100EF000FF920F931F93CF93DF93EC01F62EC72E33
:100F0000042FD52E122FE32E61E08F2D0E94280F83
:100F100061E0802F0E94280F61E0812F0E94280F3E
:100F2000F882C9820A83DB821C83ED82E3EDF2E062
:100F300090EC908329EF218384EA828380EB838382
:100F400089E9848382E9858332E8368338EF378301
:100F500030E8308730E9318738E8328733E8338743
:100F600036EC348731EA358736E836873EE837870E
:100F700032EC308B39E8318B228B21EF238B23EC41
:100F8000248B29EA258B968B9CE8978B98E9908F88
:100F9000818F81EC828F81E9838F8EEF848FDF9147
:100FA000CF911F910F91FF90EF90DF90CF90089518
:100FB000FF920F931F93CF93DF93EC01F62E08E07F
:100FC00010E0F7FE02C061E001C060E08C810E9489
:100FD000640FFF0C60E088810E94640F61E08881EB
:100FE0000E94640F0150110961F7DF91CF911F91A9
:100FF0000F91FF9008951F93CF93DF93EC01142F6F
:101000000E94D807612FCE010E94D80760E08A8134
:101010000E94640F61E08A81DF91CF911F910C944F
:10102000640F3F924F925F926F927F928F929F9246
:10103000AF92BF92CF92DF92EF92FF920F931F93E6
:10104000CF93DF938C01EB014A01322E2AE030E08E
:10105000CB01B9010E94BC0F2C01E4E6F0E0CE0107
:10106000BF010E94BC0F84199509B9010E94BC0FF1
:101070009B0188EEE82E83E0F82ECE01B7010E9496
:10108000BC0F821B930B84199509BF010E94BC0FF2
:10109000FB01CE0160E177E20E94BC0F8E1B9F0B2B
:1010A000821B930B84199509B7010E94BC0FC12CB8
:1010B000D12CC2018D529D4F2C01C9018D529D4FE3
:1010C0003C01CF018D529D4F7C01FB01ED52FD4F44
:1010D0005F018C149D0464F141E0F2016081C8015C
:1010E0000E94FB07CA30D10514F4332031F042E0EE
:1010F000F3016081C8010E94FB07C436D10514F4D6
:10110000332031F044E0F7016081C8010E94FB0701
:10111000C83EF3E0DF0714F4332031F048E0F50176
:101120006081C8010E94FB07FFEFCF1ADF0AD1CF11
:10113000DF91CF911F910F91FF90EF90DF90CF90B3
:10114000BF90AF909F908F907F906F905F904F90E7
:101150003F90089520E040E050E00C9411086115A4
:1011600071058105910569F481E090E0A0E0B0E0AF
:101170008093F9029093FA02A093FB02B093FC02D1
:1011800008C06093F9027093FA028093FB02909377
:10119000FC025093F8024093F702809170008E7F1A
:1011A000809370008091B0008C7F8093B00080911C
:1011B000B100877F8093B1008091B6008F7D8093CE
:1011C000B600809170008D7F809370008091B10097
:1011D00084608093B1008091B1008C7F8093B100D6
:1011E00086E090E09093F1028093F00208951092CF
:1011F000F3021092F4021092F5021092F60210928D
:10120000F2028091F0029091F1028093B200E0E747
:10121000F0E08081816080830895E0E7F0E08081E4
:101220008E7F808308958091F3029091F402A091C3
:10123000F502B091F6020196A11DB11D8093F30253
:101240009093F402A093F502B093F6028091F3021A
:101250009091F402A091F502B091F6024091F9024A
:101260005091FA026091FB027091FC02841795077D
:10127000A607B70710F18091F20281111EC081E02C
:101280008093F2028091F3029091F402A091F50212
:10129000B091F602841B950BA60BB70B8093F3025B
:1012A0009093F402A093F502B093F602E091F70256
:1012B000F091F80209951092F20208951F920F9290
:1012C0000FB60F9211242F933F934F935F936F9319
:1012D0007F938F939F93AF93BF93EF93FF938091EF
:1012E000F0029091F1028093B2000E941309FF91E5
:1012F000EF91BF91AF919F918F917F916F915F918E
:101300004F913F912F910F900FBE0F901F90189506
:10131000EF92FF920F931F93CF93DF93EC01862FF1
:10132000688349832A83EE86FF86088B198B4423C2
:1013300011F062E001C060E00E94280F88810E94E5
:10134000930F8B839A81992321F091E0811190E092
:101350009B830E94B80E6E837F83888799872B8139
:101360002C831D826A877B878C879D87DF91CF9135
:101370001F910F91FF90EF900895CF92DF92EF921F
:10138000FF920F931F93CF93DF93EC010E94B80E4F
:101390006093FE027093FF02809300039093010319
:1013A00088810E94930F8093FD029A81992329F0EE
:1013B00091E0811190E09093FD024091FE025091E6
:1013C000FF0260910003709101038A859B85AC85C3
:1013D000BD856A017B01C81AD90AEA0AFB0A0E8593
:1013E0001F85288939899B81C016D106E206F3063C
:1013F00038F44E835F83688779871D82892F12C0F6
:101400009C838091FD028B834E835F8368877987FD
:10141000981739F04A875B876C877D8791E09D83B9
:1014200001C01D82DF91CF911F910F91FF90EF902E
:10143000DF90CF90089521E0FC018381811101C0EC
:1014400020E0822F089521E0FC018381811120E0BA
:10145000822F0895FC0124853585F901E05CFF4F5A
:1014600080819181329620813181821B930B8F7311
:1014700099270895DC011C96ED91FC911D97DF01E1
:10148000A05CBF4F2D913C91119712968D919C912C
:1014900011972817390739F08D919C91E80FF91FA2
:1014A000808190E008958FEF9FEF0895FC01A4855F
:1014B000B585FD01E05CFF4F20813181329680814E
:1014C00091812817390779F080819181A80FB91F80
:1014D0008C91208131812F5F3F4F2F7333273183D0
:1014E000208390E008958FEF9FEF0895FC0181A184
:1014F000882329F0A489B5898C9186FFFBCF11A29E
:1015000008950F931F93CF93DF93FC01A685B785B2
:101510008D01005C1F4FE8018881998101968F73CE
:101520009927AD014E5B5F4FEA0128813981281769
:101530003907D1F3E80128813981A20FB31F6C93D9
:10154000A685B785A05CBF4F11969C938E93A68904
:10155000B7892C9181E090E0078C02C0880F991F19
:101560000A94E2F7822B8C9381E081A30488F589A9
:10157000E02D80818064808381E090E0DF91CF91D5
:101580001F910F91089508951F920F920FB60F9219
:1015900011242F934F935F938F939F93EF93FF9318
:1015A0008091C00082FD1CC02091C6008091A803DC
:1015B0009091A9034091AA035091AB0301968F73B8
:1015C00099274817590771F0E091A803F091A903F2
:1015D000E859FC4F20839093A9038093A80302C08D
:1015E0008091C600FF91EF919F918F915F914F91F4
:1015F0002F910F900FBE0F901F90189582E093E0EF
:101600000E942A0A892B11F00C94C30A08951F9294
:101610000F920FB60F9211242F933F938F939F93A6
:10162000EF93FF93209164033091650380916603EB
:10163000909167032817390731F48091C1008F7D9D
:101640008093C10014C0E0916603F0916703EC5DE4
:10165000FC4F2081809166039091670301968F7300
:10166000992790936703809366032093C600FF91A8
:10167000EF919F918F913F912F910F900FBE0F90FF
:101680001F901895CF92DF92EF92FF92CF93DF9346
:10169000EC016A017B014115514E6105710509F1AB
:1016A000EC89FD8981E090E008A002C0880F991FB5
:1016B0000A94E2F7808360E079E08DE390E0A7018F
:1016C00096010E94D00FDA01C9010197A109B10961
:1016D000B695A795979587959C01211580E13807C8
:1016E000A8F0EC89FD89108260E874E88EE190E052
:1016F000A70196010E94D00FDA01C9010197A10943
:10170000B109B695A795979587959C01E889F989C0
:101710003083EA89FB89208319A2EE89FF89408101
:1017200081E090E09C010C8C02C0220F331F0A94D0
:10173000E2F7242B2083EE89FF8940819C010D8CE8
:1017400002C0220F331F0A94E2F7242B2083EE8974
:10175000FF8940819C010E8C02C0220F331F0A9426
:10176000E2F7242B2083EE89FF8920810F8C02C0B1
:10177000880F991F0A94E2F7809582238083DF9176
:10178000CF91FF90EF90DF90CF900895E2E0F3E0EB
:101790001382128288EE93E0A0E0B0E08483958308
:1017A000A683B78386E592E09183808388E693E001
:1017B0009587848784E293E09787868785EC90E01D
:1017C000918B808B84EC90E0938B828B80EC90E00B
:1017D000958B848B81EC90E0978B868B82EC90E0EC
:1017E000918F808F86EC90E0938F828F84E0848F3E
:1017F00083E0858F87E0868F85E0878F81E080A3F7
:101800000895CF92DF92EF92FF920F931F93CF93A1
:10181000DF936C01EB017B01E40EF51E00E010E0AC
:10182000CE15DF0561F06991D601ED91FC91019033
:10183000F081E02DC6010995080F191FF1CFC801ED
:10184000DF91CF911F910F91FF90EF90DF90CF909C
:1018500008956115710579F0FB0101900020E9F709
:101860003197AF01461B570BDC01ED91FC910280D3
:10187000F381E02D099480E090E008950C94290C08
:10188000DC01ED91FC910190F081E02D09940F9322
:101890001F93CF93DF93EC016DE00E94400C8C010D
:1018A0006AE0CE010E94400C800F911FDF91CF9122
:1018B0001F910F9108950F931F93CF93DF93EC0126
:1018C0000E94290C8C01CE010E94470C800F911FB1
:1018D000DF91CF911F910F9108958F929F92AF92B8
:1018E000BF92CF92DF92EF92FF920F931F93CF930D
:1018F000DF93CDB7DEB7A1970FB6F894DEBF0FBE6A
:10190000CDBF6C01142FE52FCB01022F19A222307D
:1019100008F40AE07E0121E2E20EF11C802E912CF7
:10192000A12CB12C612F7E2FA50194010E94D00F14
:10193000029F1019112481E0E81AF1081A3014F4FA
:10194000105D01C0195CF7011083122FE32FCA014B
:10195000232B242B252B31F7B701C6010E94290C1C
:10196000A1960FB6F894DEBF0FBECDBFDF91CF9129
:101970001F910F91FF90EF90DF90CF90BF90AF90AD
:101980009F908F900895CF92DF92EF92FF920F93E6
:101990001F93CF93DF932115310581F4DC01ED9185
:1019A000FC910190F081E02D642FDF91CF911F9188
:1019B0000F91FF90EF90DF90CF9009942A3031057E
:1019C00001F577FF1DC06A017B01EC016DE20E9409
:1019D000400C8C0144275527BA014C195D096E094A
:1019E0007F092AE0CE010E946D0C800F911FDF91CC
:1019F000CF911F910F91FF90EF90DF90CF900895BE
:101A00002AE0DF91CF911F910F91FF90EF90DF902F
:101A1000CF900C946D0C9A01AB01770F660B770B8E
:101A20000C94C30C0F931F93CF93DF93EC010E9490
:101A30000B0D8C01CE010E94470C800F911FDF918E
:101A4000CF911F910F910895CF92DF92EF92FF9265
:101A5000611571058105910549F06B017C010E94BA
:101A60009010A70196010E94F20F03C060E070E0A1
:101A7000CB01FF90EF90DF90CF9008950E94C40EAD
:101A80000E94AB00CEEFDAE00E94E0002097E1F385
:101A90000E94FE0AF9CF0C944D0D0F931F93CF9324
:101AA000DF938230910510F482E090E0E091B7037B
:101AB000F091B80320E030E0A0E0B0E0309719F1F9
:101AC000408151810281138148175907C8F084175A
:101AD000950769F4109731F012960C9312971396AC
:101AE0001C9327C00093B7031093B80322C021159D
:101AF000310519F04217530718F49A01BD01EF019F
:101B0000DF01F801DBCF21153105F9F0281B390B76
:101B10002430310580F48A819B816115710521F0A3
:101B2000FB019383828304C09093B8038093B7032F
:101B3000FE01329644C0FE01E20FF31F81939193A0
:101B400022503109398328833AC02091B50330915E
:101B5000B603232B41F42091B3013091B4013093AB
:101B6000B6032093B5032091B1013091B201211544
:101B7000310541F42DB73EB74091B5015091B60102
:101B8000241B350BE091B503F091B603E217F30780
:101B9000A0F42E1B3F0B2817390778F0AC014E5FDD
:101BA0005F4F2417350748F04E0F5F1F5093B60361
:101BB0004093B5038193919302C0E0E0F0E0CF0140
:101BC000DF91CF911F910F910895CF93DF930097ED
:101BD00009F481C0FC01329713821282A091B703ED
:101BE000B091B803109781F420813181820F931F47
:101BF0002091B5033091B6032817390751F5F093BA
:101C0000B603E093B50367C0ED0120E030E0CE17E6
:101C1000DF0740F44A815B819E0141155105F1F0D7
:101C2000EA01F5CFD383C28340815181840F951F90
:101C3000C817D90759F488819981840F951F029696
:101C4000918380838A819B819383828321153105CF
:101C500029F4F093B803E093B7033DC0E901FB8397
:101C6000EA8349915991C40FD51FEC17FD0761F420
:101C700080819181840F951F0296E9019983888361
:101C8000828193819B838A83E0E0F0E012968D91BC
:101C90009C911397009719F0FD01DC01F7CF8D910E
:101CA0009C9111979D012E5F3F4F820F931F2091B2
:101CB000B5033091B6032817390769F4309729F432
:101CC0001092B8031092B70302C013821282B0932D
:101CD000B603A093B503DF91CF9108951F920F92A1
:101CE0000FB60F9211242F933F938F939F93AF932F
:101CF000BF938091AD039091AE03A091AF03B091DB
:101D0000B0033091AC0323E0230F2D3720F401966C
:101D1000A11DB11D05C026E8230F0296A11DB11D0E
:101D20002093AC038093AD039093AE03A093AF03D5
:101D3000B093B0038091B1039091B203A091B3032B
:101D4000B091B4030196A11DB11D8093B10390938E
:101D5000B203A093B303B093B403BF91AF919F912B
:101D60008F913F912F910F900FBE0F901F9018955C
:101D70002FB7F8946091AD037091AE038091AF03DB
:101D80009091B0032FBF0895789484B5826084BD8C
:101D900084B5816084BD85B5826085BD85B581606F
:101DA00085BDEEE6F0E0808181608083E1E8F0E0CF
:101DB0001082808182608083808181608083E0E8FE
:101DC000F0E0808181608083E1EBF0E080818460DD
:101DD0008083E0EBF0E0808181608083EAE7F0E0DF
:101DE0008081846080838081826080838081816043
:101DF00080838081806880831092C1000895833041
:101E000081F028F4813099F08230A1F00895863075
:101E1000A9F08730B9F08430D1F4809180008F7DB3
:101E200003C0809180008F7780938000089584B5EF
:101E30008F7702C084B58F7D84BD08958091B000F6
:101E40008F7703C08091B0008F7D8093B00008959C
:101E5000CF93DF9390E0FC01E458FF4F2491FC0105
:101E6000E057FF4F8491882361F190E0880F991F1C
:101E7000FC01E854FF4FC591D491FC01E255FF4F9E
:101E8000A591B491611109C09FB7F89488812095FC
:101E900082238883EC912E230BC0623061F49FB7BC
:101EA000F8948881322F309583238883EC912E2BF0
:101EB0002C939FBF06C08FB7F894E8812E2B288300
:101EC0008FBFDF91CF9108951F93CF93DF93282F7A
:101ED00030E0F901E859FF4F8491F901E458FF4FD0
:101EE000D491F901E057FF4FC491CC23C1F0162FD4
:101EF00081110E94FF0EEC2FF0E0EE0FFF1FE25564
:101F0000FF4FA591B4919FB7F894111104C08C9123
:101F1000D095D82302C0EC91DE2BDC939FBFDF91DC
:101F2000CF911F910895CF93DF93282F30E0F901CF
:101F3000E859FF4F8491F901E458FF4FD491F9011A
:101F4000E057FF4FC491CC2391F081110E94FF0E06
:101F5000EC2FF0E0EE0FFF1FEC55FF4FA591B49171
:101F6000EC91ED2381E090E021F480E002C080E07C
:101F700090E0DF91CF91089597FB072E16F400941F
:101F800007D077FD09D00E941C1007FC05D03EF455
:101F9000909581959F4F0895709561957F4F089515
:101FA000A1E21A2EAA1BBB1BFD010DC0AA1FBB1F5D
:101FB000EE1FFF1FA217B307E407F50720F0A21BCF
:101FC000B30BE40BF50B661F771F881F991F1A943C
:101FD00069F760957095809590959B01AC01BD0166
:101FE000CF010895052E97FB1EF400940E9409105E
:101FF00057FD07D00E94D00F07FC03D04EF40C947D
:10200000091050954095309521953F4F4F4F5F4FA8
:10201000089590958095709561957F4F8F4F9F4F54
:1020200008950E943610A59F900DB49F900DA49F17
:10203000800D911D11240895AA1BBB1B51E107C0FF
:10204000AA1FBB1FA617B70710F0A61BB70B881F48
:10205000991F5A95A9F780959095BC01CD010895D7
:10206000EE0FFF1F0590F491E02D0994A29FB0019F
:10207000B39FC001A39F700D811D1124911DB29FBC
:10208000700D811D1124911D08958F929F92AF9222
:10209000BF92CF92DF92EF92FF92CF93DF93EC014A
:1020A000688179818A819B8161157105810591051E
:1020B00021F464E279ED8BE597E02DE133EF41E027
:1020C00050E00E94F20F49015A019B01AC01A7EABE
:1020D000B1E40E9411106B017C01ACEEB4EFA501DC
:1020E00094010E94EA10DC01CB018C0D9D1DAE1DF8
:1020F000BF1DB7FF03C00197A109B048888399832A
:10210000AA83BB83BC01CD019F77DF91CF91FF9064
:10211000EF90DF90CF90BF90AF909F908F900895F9
:102120008F929F92AF92BF92CF92DF92EF92FF92E7
:102130006091000170910101809102019091030171
:10214000611571058105910521F464E279ED8BE556
:1021500097E02DE133EF41E050E00E94F20F49019A
:102160005A019B01AC01A7EAB1E40E9411106B0176
:102170007C01ACEEB4EFA50194010E94EA10DC01F1
:10218000CB018C0D9D1DAE1DBF1DB7FF03C0019778
:10219000A109B0488093000190930101A09302012E
:1021A000B0930301BC01CD019F77FF90EF90DF90CA
:1021B000CF90BF90AF909F908F9008956093000153
:1021C0007093010180930201909303010895B7FF7A
:1021D0000C9411100E941110821B930B0895F89417
:0221E000FFCF2F
:1021E20001000000FFFF2A2A2A2A2A2A382C00008E
:1021F20000000000000000000000000000000000DD
:1022020000000000000000000000000000000000CC
:1022120000000000000000000000000000000000BC
:1022220000000000000000000000000000000000AC
:10223200000000000000000000000000000000009C
:10224200000000000000000000000000000000008C
:10225200000000000000000000000000000000007C
:10226200000000000000000000000000000000006C
:10227200000000000000000000000000000000005C
:1022820000000000000000000000000000000C0B35
:102292000A0000B9038000000001000800400000AD
:1022A200010004050D537461727420636F6D6D61DA
:1022B2006E64203E3E200053746172742074696D16
:1022C20065722E2E2E0053746172742073657175BF
:1022D200656E63652063616E63656C6C656420285E
:1022E2007269666C65206973206261636B20746F2A
:1022F20020686F726E732900537461727420736563
:102302007175656E63652063616E63656C6C65648F
:10231200202863616E63656C2070726573736564F7
:1023220029000D0E131516191A1C232526292A2CED
:10233200323400000000810A010C2A0A560A3A0AC5
:02234200760A19
:00000001FF
